:100000000C9475000C94A1000C94A1000C94A10018
:100010000C94A1000C94A1000C94A1000C94A100DC
:100020000C94A1000C94A1000C94A1000C94A100CC
:100030000C94A1000C94A1000C94A1000C94A100BC
:100040000C94A1000C94A1000C94A1000C94A100AC
:100050000C94A1000C94A1000C94A1000C94350701
:100060000C94A1000C941A010C9446020C94A1006B
:100070000C94A1000C94A1000C94A1000C94A1007C
:100080000C94A1000C94A1000C94A1000C94A1006C
:100090000C9453010C9485020C94A1000C94A100C3
:1000A0000C94A1000C94A1000C94A1000C94A1004C
:1000B0000C94A1000C94A1000C94A1000C94A1003C
:1000C0000C94A1000C94A1000C94A1000C948C0140
:1000D0000C94C4020C94A1000C94C5010C9403036D
:1000E0000C94A100C1006D04BA0011241FBECFEF13
:1000F000D1E2DEBFCDBF00E00CBF13E0A0E0B2E074
:10010000EAE7F4E100E00BBF02C007900D92AE36C3
:10011000B107D9F716E0AEE6B3E001C01D92AF31EA
:10012000B107E1F710E0C8EED0E004C02297FE016D
:100130000E942C0AC43ED107C9F70E948B050C947B
:10014000F5090C9400008130910551F46F5F7F4FE9
:1001500081F48FE693E060E072E00E94FC0608956F
:10016000892B39F46F5F7F4F21F48FE693E00E9473
:100170002F07089580E090E06FEF7FEF0E94A300CB
:10018000089581E090E06FEF7FEF0E94A300089553
:1001900080916E038823B1F486E995E06FE673E001
:1001A0000E940E068FE693E060E072E00E94160760
:1001B00086E995E061E072E00E94FB0581E08093B2
:1001C0006E03089586E995E00E94C803892B91F09B
:1001D00086E995E00E94F903BC018A30910519F087
:1001E0008D30910519F410926E0308958FE693E017
:1001F0000E94B50608950F931F9306E915E0C80104
:1002000040E855E260E070E00E944203C80165E00A
:1002100072E00E94F805C80169E172E00E94F805E9
:100220008FE693E06FE473E00E9416071F910F9131
:10023000089508951F920F920FB60F920BB60F926A
:1002400011242F933F934F938F939F93EF93FF939B
:100250004091C6002091B6033091B7032F5F3F4F06
:100260002F7330708091B8039091B9032817390724
:1002700059F0E091B603F091B703EA58FC4F408380
:100280003093B7032093B603FF91EF919F918F9125
:100290004F913F912F910F900BBE0F900FBE0F907B
:1002A0001F90189508951F920F920FB60F920BB6DC
:1002B0000F9211242F933F934F938F939F93EF931C
:1002C000FF934091CE0020913E0430913F042F5F78
:1002D0003F4F2F7330708091400490914104281754
:1002E000390759F0E0913E04F0913F04E250FC4F91
:1002F000408330933F0420933E04FF91EF919F9100
:100300008F914F913F912F910F900BBE0F900FBE89
:100310000F901F90189508951F920F920FB60F928D
:100320000BB60F9211242F933F934F938F939F936C
:10033000EF93FF934091D6002091C6043091C704FB
:100340002F5F3F4F2F7330708091C8049091C90484
:100350002817390759F0E091C604F091C704EA570D
:10036000FB4F40833093C7042093C604FF91EF9165
:100370009F918F914F913F912F910F900BBE0F90B6
:100380000FBE0F901F90189508951F920F920FB6F1
:100390000F920BB60F9211242F933F934F938F938D
:1003A0009F93EF93FF934091360120914E0530913A
:1003B0004F052F5F3F4F2F73307080915005909104
:1003C00051052817390759F0E0914E05F0914F0576
:1003D000E25FFA4F408330934F0520934E05FF9123
:1003E000EF919F918F914F913F912F910F900BBE65
:1003F0000F900FBE0F901F901895E091A205F091FD
:10040000A305E05CFF4F8191919120813181821B96
:10041000930B8F739070892B11F00E941901E0915A
:10042000C105F091C205E05CFF4F8191919120815F
:100430003181821B930B8F739070892B11F00E9476
:100440005201E091E005F091E105E05CFF4F819100
:10045000919120813181821B930B8F739070892B36
:1004600011F00E948B01E091FF05F0910006E05C25
:10047000FF4F8191919120813181821B930B8F736A
:100480009070892B11F00E94C40108951F920F9261
:100490000FB60F920BB60F9211242F933F938F93A9
:1004A0009F93EF93FF932091FA033091FB03809188
:1004B000FC039091FD032817390731F48091C100A6
:1004C0008F7D8093C10014C0E091FC03F091FD0387
:1004D000E654FC4F20818091FC039091FD0301962E
:1004E0008F7390709093FD038093FC032093C6005C
:1004F000FF91EF919F918F913F912F910F900BBEA4
:100500000F900FBE0F901F9018951F920F920FB66D
:100510000F920BB60F9211242F933F938F939F93BB
:10052000EF93FF932091820430918304809184049F
:10053000909185042817390731F48091C9008F7D87
:100540008093C90014C0E0918404F0918504EE5BAF
:10055000FB4F2081809184049091850401968F73D4
:10056000907090938504809384042093CE00FF9133
:10057000EF919F918F913F912F910F900BBE0F9014
:100580000FBE0F901F9018951F920F920FB60F92EB
:100590000BB60F9211242F933F938F939F93EF935A
:1005A000FF9320910A0530910B0580910C059091E5
:1005B0000D052817390731F48091D1008F7D809384
:1005C000D10014C0E0910C05F0910D05E653FB4FEE
:1005D000208180910C0590910D0501968F7390708C
:1005E00090930D0580930C052093D600FF91EF9119
:1005F0009F918F913F912F910F900BBE0F900FBE47
:100600000F901F9018951F920F920FB60F920BB676
:100610000F9211242F933F938F939F93EF93FF9308
:1006200020919205309193058091940590919505C4
:100630002817390731F4809131018F7D8093310182
:1006400014C0E0919405F0919505EE5AFA4F20817F
:10065000809194059091950501968F739070909379
:1006600095058093940520933601FF91EF919F911A
:100670008F913F912F910F900BBE0F900FBE0F9057
:100680001F901895AF92BF92DF92EF92FF920F9357
:100690001F93CF93DF93EC017A018B01DD2440306F
:1006A00081EE580780E0680780E0780711F0DD24CC
:1006B000D39491E0A92EB12CEC89FD89DD2069F05D
:1006C000C5010E8C02C0880F991F0A94E2F780833F
:1006D00060E079E08DE390E005C0108260E874E8A6
:1006E0008EE190E0A80197010E94080A2150304055
:1006F00040405040569547953795279580E12030EA
:10070000380720F0DD2011F0DD24D6CFE889F98903
:100710003083EA89FB892083EE89FF89408121E0CB
:1007200030E0C9010A8C02C0880F991F0A94E2F7D1
:10073000482B4083EE89FF894081C9010B8C02C0A0
:10074000880F991F0A94E2F7482B4083EE89FF89AE
:100750004081C9010C8C02C0880F991F0A94E2F7EE
:10076000482B4083EE89FF8980810D8C02C0220FC7
:10077000331F0A94E2F7209528232083DF91CF913D
:100780001F910F91FF90EF90DF90BF90AF90089571
:10079000DC011C96ED91FC911D97E05CFF4F2191CF
:1007A000319180819181281B390B2F733070C901E1
:1007B0000895DC011C96ED91FC911D97E05CFF4FC4
:1007C00020813181E054F040DF01AE5BBF4F8D915D
:1007D0009C9111972817390719F42FEF3FEF07C0A5
:1007E0008D919C91E80FF91F8081282F30E0C9017D
:1007F0000895DC011C96ED91FC911D97E05CFF4F84
:1008000020813181E054F040DF01AE5BBF4F8D911C
:100810009C9111972817390719F42FEF3FEF10C05B
:100820008D919C911197E80FF91F20818D919C91DA
:10083000119701968F73907011969C938E9330E070
:10084000C9010895FC0186859785DC01A05CBF4F36
:10085000FC01EE5BFF4F2D913C91119780819181BE
:1008600028173907C1F70895CF93DF93EC01EE8580
:10087000FF85E05CFF4F20813181E054F0402F5F25
:100880003F4F2F733070DF01AE5BBF4F8D919C9156
:10089000119728173907D1F3E05CFF4F80819181D0
:1008A000E054F040E80FF91F6083EE85FF85E05CBF
:1008B000FF4F31832083EE89FF89208181E090E022
:1008C0000D8C02C0880F991F0A94E2F7282B208311
:1008D00081E090E0DF91CF9108951F9310929905E8
:1008E0001092980528EE33E040E050E020939A05FE
:1008F00030939B0540939C0550939D0561E673E002
:10090000709397056093960586E793E09093A3050F
:100910008093A2058AEB93E09093A5058093A405AC
:1009200085EC90E09093A7058093A60584EC90E079
:100930009093A9058093A80580EC90E09093AB0577
:100940008093AA0581EC90E09093AD058093AC056F
:1009500086EC90E09093AF058093AE0514E0109381
:10096000B005B3E0B093B105A7E0A093B205F5E000
:10097000F093B305E1E0E093B4051092B80510924E
:10098000B7052093B9053093BA054093BB05509342
:10099000BC057093B6056093B5058EEF93E0909318
:1009A000C2058093C10582E494E09093C4058093CE
:1009B000C3058DEC90E09093C6058093C5058CEC43
:1009C00090E09093C8058093C70588EC90E09093E1
:1009D000CA058093C90589EC90E09093CC0580937B
:1009E000CB058EEC90E09093CE058093CD051093CF
:1009F000CF05B093D005A093D105F093D205E09335
:100A0000D3051092D7051092D6052093D8053093C0
:100A1000D9054093DA055093DB057093D5056093B3
:100A2000D40586E894E09093E1058093E0058AEC94
:100A300094E09093E3058093E20585ED90E0909338
:100A4000E5058093E40584ED90E09093E7058093BD
:100A5000E60580ED90E09093E9058093E80581ED4F
:100A600090E09093EB058093EA0586ED90E09093FB
:100A7000ED058093EC051093EE05B093EF05A09380
:100A8000F005F093F105E093F2051092F60510924F
:100A9000F5052093F7053093F8054093F905509339
:100AA000FA057093F4056093F3058EE095E090935A
:100AB00000068093FF0582E595E0909302068093FF
:100AC000010685E391E0909304068093030684E396
:100AD00091E0909306068093050680E391E0909361
:100AE00008068093070681E391E090930A068093BD
:100AF000090686E391E090930C0680930B06109311
:100B00000D06B0930E06A0930F06F0931006E09327
:100B100011061F910895CF93DF930E947D070E94D5
:100B2000FB00CDEFD1E00E94C8002097E1F30E94C6
:100B3000FD01F9CFCF92DF92EF92FF920F931F93B7
:100B4000CF93DF937C016B018A01C0E0D0E00FC03E
:100B5000D6016D916D01D701ED91FC910190F0816D
:100B6000E02DC7011995C80FD91F0150104001157C
:100B7000110571F7CE01DF91CF911F910F91FF9079
:100B8000EF90DF90CF900895EF92FF920F931F9315
:100B90008C01DC01ED91FC910190F081E02D6DE084
:100BA00019957C01D801ED91FC910190F081E02D27
:100BB000C8016AE019959C012E0D3F1DC9011F91C6
:100BC0000F91FF90EF900895CF93DF93DB010D908D
:100BD0000020E9F71197A61BB70BEC01E881F9811A
:100BE0000280F381E02DAD011995DF91CF91089539
:100BF0000E94E4050895EF92FF920F931F937C01EA
:100C00000E94E4058C01C7010E94C405080F191F4A
:100C1000C8011F910F91FF90EF900895AF92BF927E
:100C2000CF92DF92EF92FF920F931F93CF93DF93B8
:100C30005C016B01C0E0D0E0EE24FF2410C0D501C0
:100C4000ED91FC9100811181C601BE010E94410617
:100C5000682FC501F8011995E80EF91E2196F601D5
:100C600084819581C817D90750F3C701DF91CF91CF
:100C70001F910F91FF90EF90DF90CF90BF90AF90BA
:100C80000895FC01848195816817790748F40190E3
:100C9000F081E02D309721F0E60FF71F8081089555
:100CA00080E008950F931F93CF93DF93EC018B01A6
:100CB0006F5F7F4F888199810E941409009711F41A
:100CC00080E005C0998388831B830A8381E0DF91DC
:100CD000CF911F910F910895CF93DF93EC018881FD
:100CE0009981892B29F08A819B818617970760F467
:100CF000CE010E945206882341F08C819D81892B70
:100D000019F4E881F981108281E0DF91CF91089593
:100D1000EF92FF920F931F93CF93DF93EC017B0130
:100D20006C817D81E114F104C1F04115510599F008
:100D30008A01060F171FB8010E946C06882369F00C
:100D4000888199812C813D81820F931FB7010E9478
:100D5000010A1D830C8381E001C080E0DF91CF9107
:100D60001F910F91FF90EF900895DF93CF930F9213
:100D70000F92CDB7DEB769831A82BE016F5F7F4FD6
:100D800041E050E00E9488060F900F90CF91DF91D4
:100D90000895CF93DF93EC0188819981009711F03A
:100DA0000E947C08198218821D821C821B821A8272
:100DB000DF91CF910895EF92FF920F931F93CF93FE
:100DC000DF93EC017B018A01BA010E946C06882343
:100DD00021F4CE010E94C90607C01D830C838881BF
:100DE0009981B7010E94010ACE01DF91CF911F9135
:100DF0000F91FF90EF900895CF93DF93EC0119824C
:100E000018821B821A821D821C821E826115710546
:100E100051F0DB010D900020E9F71197A61BB70BED
:100E2000AD010E94DB06DF91CF9108950F931F93D0
:100E3000182F092F6115710559F0DB010D90002065
:100E4000E9F71197A61BB70BAD010E94DB0602C0A4
:100E50000E94C906812F902F1F910F910895FC01C8
:100E6000808191810E947C0808951F920F920FB695
:100E70000F9211242F933F938F939F93AF93BF9320
:100E80008091160690911706A0911806B091190648
:100E900030911A060196A11DB11D232F2D5F2D370C
:100EA00020F02D570196A11DB11D20931A068093A5
:100EB000160690931706A0931806B0931906809112
:100EC000120690911306A0911406B0911506019692
:100ED000A11DB11D8093120690931306A0931406D2
:100EE000B0931506BF91AF919F918F913F912F9134
:100EF0000F900FBE0F901F901895789484B5826064
:100F000084BD84B5816084BD85B5826085BD85B5AD
:100F1000816085BDEEE6F0E0808181608083E1E85C
:100F2000F0E0108280818260808380818160808394
:100F3000E0E8F0E0808181608083E1EBF0E0808197
:100F400084608083E0EBF0E0808181608083E1E970
:100F5000F0E0808182608083808181608083E0E92D
:100F6000F0E0808181608083E1EAF0E0808182604E
:100F70008083808181608083E0EAF0E0808181600D
:100F80008083E1E2F1E08081826080838081816002
:100F90008083E0E2F1E0808181608083EAE7F0E035
:100FA0008081846080838081826080838081816091
:100FB00080838081806880831092C10008950F93A0
:100FC0001F93CF93DF93BC018230910510F462E050
:100FD00070E0E0911D06F0911E06A0E0B0E040E058
:100FE00050E024C08081918186179707D0F0861742
:100FF000970771F482819381109729F013969C933F
:101000008E9312972CC090931E0680931D0627C0C6
:101010004115510519F08417950718F4EF018D015A
:10102000AC01DF01828193819C01F9013097D1F6F7
:1010300041155105F9F0CA01861B970B84309105C3
:1010400080F48A819B810115110521F0F8019383B9
:10105000828304C090931E0680931D06FE01329683
:1010600045C0FE01E80FF91F6193719302979983C0
:1010700088833CC080911B0690911C06892B41F40B
:101080008091590390915A0390931C0680931B06FC
:1010900040915B0350915C034115510541F44DB7FC
:1010A0005EB78091570390915803481B590B2091CC
:1010B0001B0630911C0624173507B0F4CA01821BA9
:1010C000930B8617970780F0AB014E5F5F4F841735
:1010D000950750F0420F531F50931C0640931B0678
:1010E000F9016193719302C0E0E0F0E0CF01DF917C
:1010F000CF911F910F910895CF93DF939C0100979B
:1011000009F48FC0EC0122971B821A8260911D06A0
:1011100070911E066115710581F488819981820F95
:10112000931F20911B0630911C062817390739F5AB
:10113000D0931C06C0931B0674C0DB0140E050E056
:10114000AC17BD0708F1BB83AA83FE012191319141
:10115000E20FF31FAE17BF0779F48D919C911197A1
:10116000280F391F2E5F3F4F3983288312968D91A8
:101170009C9113979B838A834115510571F4D093F9
:101180001E06C0931D064DC012968D919C9113971B
:10119000AD01009711F0DC01D3CFDA011396DC9397
:1011A000CE931297FA0121913191E20FF31FCE17DE
:1011B000DF0769F488819981280F391F2E5F3F4F1F
:1011C000FA01318320838A819B8193838283E0E0CB
:1011D000F0E0DB0112968D919C911397009719F026
:1011E000BC01FD01F6CFAB014E5F5F4FDB018D917E
:1011F0009C91840F951F20911B0630911C06281787
:10120000390779F4309729F410921E0610921D06C2
:1012100002C0138212824250504050931C064093E9
:101220001B06DF91CF9108956F927F928F929F92CC
:10123000AF92BF92CF92DF92EF92FF920F931F93E4
:10124000CF93DF938C01009729F4CB010E94DF0735
:101250008C01BBC08EEFE82E8FEFF82EE00EF11E52
:101260004801860E971E8E149F0408F4ACC0D70167
:101270004D915C91119746175707B8F045305105CD
:1012800008F4A3C0CA0104978617970708F49DC005
:1012900042505040461B570BF401419351936D93BC
:1012A0007C93CF010E947C0890C05B01A41AB50A10
:1012B0003801640E751EA0911D06B0911E06CC2447
:1012C000DD24E0E0F0E047C0A615B705A9F5CD9113
:1012D000DC911197CE0102968A159B0568F1CE012B
:1012E0008A199B09029612962C91129713963C919B
:1012F000059758F0F40122833383CA19DB09D1839F
:10130000C083D7016D937C9309C04E5F5F4F4C0F34
:101310005D1FF70151834083C901FC01C114D10451
:1013200031F0D6011396FC93EE9312974EC0F093D2
:101330001E06E0931D0649C08D919C911197E817F8
:10134000F90708F4FC016D0112968C91129713961F
:101350009C919C01D901109709F0B6CF80911B0692
:1013600090911C0686159705E9F4E617F707D0F467
:1013700020915B0330915C032115310541F42DB7B9
:101380003EB78091570390915803281B390B821662
:101390009306C8F490921C0680921B06F701718395
:1013A000608313C0CB010E94DF07EC01009759F066
:1013B000D7014D915C91B8010E94F809C8010E94C3
:1013C0007C088E0102C000E010E0C801DF91CF91DF
:1013D0001F910F91FF90EF90DF90CF90BF90AF9053
:1013E0009F908F907F906F900895F8940C94300A9E
:1013F000FB01DC0102C001900D9241505040D8F732
:101400000895FB01DC0101900D920020E1F70895A1
:10141000A1E21A2EAA1BBB1BFD010DC0AA1FBB1FF8
:10142000EE1FFF1FA217B307E407F50720F0A21B6A
:10143000B30BE40BF50B661F771F881F991F1A94D7
:1014400069F760957095809590959B01AC01BD0101
:10145000CF010895EE0FFF1F0590F491E02D199430
:1014600010E0C8EED0E004C0FE010E942C0A2296D3
:0A147000CA3ED107C9F7F894FFCF78
:10147A00002E2E2E00504841534530310D0A0D0AD8
:10148A000D0A0D0A0D0A0D0A005468652070726F64
:10149A006772616D20776169747320666F72206963
:1014AA006E707574206F6E2074686520736572693A
:1014BA00616C20706F72742E0D0A5768656E206118
:1014CA002066756C6C206C696E6520697320726584
:1014DA006365697665642C20697420697320736575
:1014EA006E74206261636B206F6E2074686520736E
:1014FA00657269616C20706F72740D0A746F207462
:10150A0068652073656E6465722C2077697468203B
:10151A00746872656520646F747320282E2E2E29D4
:10152A0020617070656E6465642E0D0A5768656E79
:10153A002072756E6E696E67207468697320636FB6
:10154A00646520696E207468652073657269616CD0
:10155A002D6D6F6E69746F722C20757365204374DC
:10156A00726C2B4120616E64205120746F20657863
:10157A0069740D0A696620796F752068616420654F
:10158A006E6F7567682066756E2E0D0A5468652041
:10159A00636F64652063616E20616C736F2062659E
:1015AA00207573656420746F207465737420736585
:1015BA007269616C5F746573742E70790D0A0050DC
:1015CA004841534530320020001F06000000000049
:0E15DA000034049A05C803F903D90322040063
:00000001FF
