:100000000C94FE030C94F00E0C94210F0C94520FE0
:100010000C94830F0C94B40F0C94E50F0C941610F1
:100020000C9447100C942A040C942A040C942A046F
:100030000C942A040C942A040C942A040C942A0488
:100040000C942A040C942A040C942A040C942A0478
:100050000C942A040C942A040C942A040C94AC10DA
:100060000C942A040C94D4120C9400140C942A04BA
:100070000C942A040C942A040C942A040C942A0448
:100080000C942A040C942A040C942A040C942A0438
:100090000C940D130C943F140C942A040C942A0411
:1000A0000C942A040C942A040C942A040C942A0418
:1000B0000C942A040C942A040C942A040C942A0408
:1000C0000C942A040C942A040C942A040C944613CD
:1000D0000C947E140C942A040C947F130C94BD147D
:1000E0000C942A0400002100240027002A002D007F
:1000F0003000330001010000040107010A01000083
:100100002200250028002B002E00310034000201BF
:100110000000050108010B0100002000230026005B
:1001200029002C002F00320000010000030106010D
:10013000090105050505070508080808020202026D
:100140000A0A080804040404010101010101010173
:100150000303030303030303040707070C0C0C0C3E
:100160000C0C0C0C02020202060606060606060627
:100170000B0B0B0B0B0B0B0B0102102020080810B4
:100180002040102040800201020108040201010207
:1001900004081020408080402010080402018004E0
:1001A000020180402010080402010804020101023B
:1001B0000408102040800102040810204080000044
:1001C000090A02080B0C0D070603040100000000D9
:1001D000000000000000000000000000000000001F
:1001E0000000000000000000000011100F000000DF
:1001F00000000000000000000000000000000000FF
:100200000000000000000000003E5B4F5B3E3E6BC4
:100210004F6B3E1C3E7C3E1C183C7E3C181C577DA0
:10022000571C1C5E7F5E1C00183C1800FFE7C3E7EC
:10023000FF0018241800FFE7DBE7FF30483A060EFE
:100240002629792926407F050507407F05253F5A45
:100250003CE73C5A7F3E1C1C08081C1C3E7F1422B5
:100260007F22145F5F005F5F06097F017F00668960
:10027000956A606060606094A2FFA29408047E04A6
:100280000810207E201008082A1C08081C2A0808CC
:100290001E101010100C1E0C1E0C30383E3830068C
:1002A0000E3E0E06000000000000005F0000000788
:1002B000000700147F147F14242A7F2A12231308B6
:1002C000646236495620500008070300001C224192
:1002D000000041221C002A1C7F1C2A08083E080836
:1002E00000807030000808080808000060600020E6
:1002F000100804023E5149453E00427F40007249C9
:100300004949462141494D331814127F102745456C
:1003100045393C4A49493141211109073649494982
:1003200036464949291E00001400000040340000F0
:100330000008142241141414141400412214080259
:10034000015909063E415D594E7C1211127C7F49CC
:100350004949363E414141227F4141413E7F494921
:1003600049417F090909013E414151737F0808084D
:100370007F00417F41002040413F017F081422411E
:100380007F404040407F021C027F7F0408107F3E78
:100390004141413E7F090909063E4151215E7F09E5
:1003A000192946264949493203017F01033F40404C
:1003B000403F1F2040201F3F4038403F6314081437
:1003C0006303047804036159494D43007F4141416F
:1003D0000204081020004141417F04020102044050
:1003E00040404040000307080020545478407F28D4
:1003F0004444383844444428384444287F385454CA
:10040000541800087E090218A4A49C787F080404EC
:100410007800447D40002040403D007F102844008B
:1004200000417F40007C047804787C08040478381C
:1004300044444438FC1824241818242418FC7C084C
:10044000040408485454542404043F44243C4040C9
:10045000207C1C2040201C3C4030403C442810287C
:10046000444C9090907C4464544C440008364100C5
:100470000000770000004136080002010204023C3F
:100480002623263C1EA1A161123A4040207A38540E
:100490005455592155557941215454784121555489
:1004A000784020545579400C1E52721239555555DA
:1004B00059395454545939555454580000457C41C5
:1004C0000002457D420001457C40F0292429F0F0DE
:1004D000282528F07C545545002054547C547C0A2F
:1004E000097F4932494949323248484832324A48FC
:1004F00048303A4141217A3A42402078009DA0A0FC
:100500007D39444444393D4040403D3C24FF24244F
:10051000487E4943662B2FFC2F2BFF0929F620C06C
:10052000887E090320545479410000447D413048BD
:10053000484A32384040227A007A0A0A727D0D1900
:10054000317D2629292F28262929292630484D4062
:1005500020380808080808080808382F10C8ACBA5E
:100560002F102834FA00007B000008142A142222DD
:10057000142A1408AA005500AAAA55AA55AA0000D0
:1005800000FF00101010FF00141414FF001010FFE3
:1005900000FF1010F010F0141414FC001414F700F5
:1005A000FF0000FF00FF1414F404FC141417101FC4
:1005B00010101F101F1414141F00101010F0000052
:1005C00000001F101010101F10101010F01000006D
:1005D00000FF101010101010101010FF100000007D
:1005E000FF140000FF00FF00001F10170000FC04B4
:1005F000F414141710171414F404F40000FF00F797
:1006000014141414141414F700F7141414171410F9
:10061000101F101F141414F4141010F010F0000028
:100620001F101F0000001F14000000FC140000F049
:1006300010F01010FF10FF141414FF141010101FEE
:1006400000000000F010FFFFFFFFFFF0F0F0F0F0FF
:10065000FFFFFF0000000000FFFF0F0F0F0F0F381C
:10066000444438447C2A2A3E147E02020606027E56
:10067000027E0263554941633844443C04407E2075
:100680001E2006027E020299A5E7A5991C2A492A86
:100690001C4C7201724C304A4D4D30304878483015
:1006A000BC625A463D3E494949007E0101017E2A0D
:1006B0002A2A2A2A44445F444440514A4440404440
:1006C0004A51400000FF0103E080FF000008086B72
:1006D0006B083612362436060F090F06000018186C
:1006E0000000001010003040FF0101001F01011E3A
:1006F00000191D1712003C3C3C3C00000000000F9C
:100700000180961180FFB103012C2DB203012C2D25
:10071000B306012C2D012C2DB40107C003A20284C5
:10072000C101C5C2020A00C3028A2AC4028AEEC5F8
:10073000010E20003601C83A0105022A0400020019
:10074000812B04000100A0022A040000007F2B047A
:100750000000009F04E010021C07123732292D29E7
:10076000252B3900010310E110031D07062E2C294B
:100770002D2E2E373F0000021013800A29806412AC
:100780000180321180FF3A81050AB1830006030A15
:10079000360108B6021502B40100C08202700AC117
:1007A0000105C2020102C5823C380AFC021115E0B3
:1007B0001009160920211B131917151E2B040502F9
:1007C0000EE1900B14081E221D181E1B1A242B0666
:1007D00006020F0A2A04000200812B040002008195
:1007E00013800A2980FF7C3C3E5E2B3D3F2F5B5DE2
:1007F0003B2C2A225C002C042716402311241FBE08
:10080000CFEFD1E2DEBFCDBF00E00CBF14E0A0E02F
:10081000B2E0E0E7F6E700E00BBF02C007900D9200
:10082000AC31B107D9F719E0ACE1B4E001C01D92D9
:10083000A638B107E1F717E0CCEFD7E004C0229764
:10084000FE010E94323BC63FD107C9F70E944517FF
:100850000C94553A0C9400008CE194E066E047E07B
:1008600028E00E941F2310924B0410924C04109217
:100870004D0410924E0410924F04109250041092A6
:100880005104109252041092530410925404109286
:100890005504109256041092570410925804109266
:1008A000590410925A040E94F41060935E047093ED
:1008B0005F0480936004909361040895EF92FF9227
:1008C0000F931F930E94F4107B018C0180916604AA
:1008D00090916704A0916804B0916904E816F90644
:1008E0000A071B0740F4E0926604F0926704009345
:1008F0006804109369048091660490916704A09144
:100900006804B09169040097A105B10589F0809150
:10091000660490916704A0916804B09169048C50BA
:100920009E4FAF4FBF4F8E159F05A007B10750F4E4
:100930000E94B008E0926604F09267040093680495
:10094000109369041F910F91FF90EF900895EF921B
:10095000FF920F931F930E94F4107B018C018091F2
:10096000620490916304A0916404B0916504E81658
:10097000F9060A071B0740F4E0926204F092630450
:100980000093640410936504809162049091630461
:10099000A0916404B09165040097A105B10589F0A8
:1009A0008091620490916304A0916404B091650405
:1009B0008C509E4FAF4FBF4F8E159F05A007B107BC
:1009C00050F40E94A408E0926204F0926304009341
:1009D0006404109365041F910F91FF90EF900895A8
:1009E000EF92FF920F931F93CF93DF93EC017B0164
:1009F00080E00E94781020911503309116038C013D
:100A0000021B130B81E00E94781020911703309194
:100A10001803821B930B9C01C8010496099710F4DC
:100A200000E010E0C9010496099710F420E030E0DE
:100A3000C80160E870E00E94E03A709561957F4FD0
:100A400079836883C90160E870E00E94E03A70959C
:100A500061957F4FF701718360830E94F4107B01E1
:100A60008C0180915E0490915F04A0916004B0912C
:100A70006104E816F9060A071B0740F4E0925E04D9
:100A8000F0925F0400936004109361048091190355
:100A900090911A03A0911B03B0911C0320915E0456
:100AA00030915F044091600450916104820F931F64
:100AB000A41FB51F8E159F05A007B10710F080E099
:100AC00019C0E0925E04F0925F04009360041093FA
:100AD000610484E00E94A31220E0892B09F421E044
:100AE00080915D04882321F080E0222309F481E0D5
:100AF00020935D04DF91CF911F910F91FF90EF90B4
:100B0000089584E060E00E94BD1184E061E00E94ED
:100B1000701281E00E947810909316038093150361
:100B200080E00E9478109093180380931703089533
:100B300080E397E065E00E94A425882309F4FFCFB5
:100B400008950F931F930CE114E0C80161E00E9427
:100B5000F122C80160E00E949221C80160E070E0CB
:100B600040E050E00E94051FC80160E070E00E9474
:100B7000111FC80161E00E940B1FC8016FE170E006
:100B80000E94FF201F910F910895EF92FF920F9303
:100B90001F93CF93DF93EC0180915B0490915C04F1
:100BA0008C179D0789F1D0935C04C0935B048CE1A2
:100BB00094E060E070E044E950E020E830E00CE0D0
:100BC00010E0E0EEEE2EE7E0FE2E0E941A218CE10E
:100BD00094E061E00E940B1F8CE194E06FE178EFFC
:100BE0000E94111F8CE194E060E070E046E950E063
:100BF0000E94051F8CE194E061E00E940B1F8CE1D4
:100C000094E0BE010E94C818DF91CF911F910F910F
:100C1000FF90EF90089580E092E00E94C50508954E
:100C2000AB01BC0184EB96E02AE030E00E94521850
:100C30000895BC0184EB96E00E94C51808953F9288
:100C40004F925F926F927F928F929F92AF92BF92DC
:100C5000CF92DF92EF92FF920F931F93DF93CF9388
:100C6000CDB7DEB728970FB6F894DEBF0FBECDBF65
:100C70004090BF035090C003569447946090C103C6
:100C80007090C2037694679480914804882311F48D
:100C9000332404C010924804332433941A821982F6
:100CA0001C821B829091B90380916A04981791F07D
:100CB0000E94350B80916F049091700460917104D3
:100CC0007091720466197709841995090E94D808F1
:100CD00033243394CE010196BE016D5F7F4F0E9495
:100CE000F004D82E89819A81892B29F48B819C81EB
:100CF000892B09F457C0E0906B04F0906C040091CC
:100D00006D0410916E04CE010596BE01695F7F4FA0
:100D10000E94BC08882309F445C08D819E818A30D9
:100D2000910548F4E0906B04F0906C0420EE3FEFE6
:100D3000E20EF31E0DC08637910510F420E009C0C5
:100D4000E0906B04F0906C0480E290E0E80EF91EF5
:100D500021E08F8198858A30910538F400916D04E7
:100D600010916E04005210400CC08637910538F087
:100D700000916D0410916E04005E1F4F02C022238B
:100D800039F0C701B8010E94D808332433940AC04F
:100D90000E940B096B817C8189819A810E943D0CA4
:100DA0000E947709DD2009F4D2C081E092E00E9420
:100DB000190660917704709178048091790490917C
:100DC0007A040E94100681E192E00E941906609167
:100DD00073047091740480917504909176040E945C
:100DE000100683E192E00E94190600917304B0900E
:100DF0007404909075048090760410917704F090BC
:100E00007804D0907904C0907A048091490490913C
:100E10004A04892BD9F485E192E00E9419061093C7
:100E20004F04F0925004D0925104C09252040093A7
:100E30004B04B0924C0490924D0480924E0421E0F9
:100E400030E030934A042093490481C082E292E06A
:100E50000E941906E12E10935704F0925804D09284
:100E60005904C0925A04A02E00935304B092540423
:100E7000909255048092560410924A0410924904AC
:100E800020914B0430914C0440914D0450914E04FC
:100E900060914F04709150048091510490915204DC
:100EA000C92CD82C0091590410915A040E943D0D70
:100EB000AC01181619060CF03FC0DDB6CEB6F3E053
:100EC000880F991FFA95E1F72DB73EB7281B390B0C
:100ED0000FB6F8943EBF0FBE2DBF8DB79EB70196DB
:100EE000F82EE92EFC0100E010E01082118212823F
:100EF000138214821582168217820F5F1F4F389655
:100F00000417150791F78F2D9E2DB8010E944D0CE7
:100F100097FD09C08DE292E00E9419068F2D9E2D4B
:100F2000B8010E942A0A8D2D9C2D9C010FB6F894C1
:100F30003EBF0FBE2DBF0BC081E492E00E94190698
:100F400068EE73E080E090E00E9402119DCE3320B5
:100F500031F00E9448090E9477090E940B06809197
:100F6000490490914A04892B19F484E592E002C067
:100F70008AE592E00E94C50587CECF92DF92EF927C
:100F8000FF920F931F93CF93DF9384EB96E040E89B
:100F900055E260E070E00E94FC1484EB96E06EE5A0
:100FA00072E00E94C81884EB96E00E94DC150E9453
:100FB000A1050E9498050E9481050E947F08C090AB
:100FC0006A04CC2DD0E034E0CC0FDD1F3A95E1F778
:100FD00029E5C22E23E0D22ECC0EDD1EFE01E35AFF
:100FE000FC4FD6011C966D917D918D919C911F9720
:100FF0002081318142815381620F731F841F951FAD
:1010000022E030E040E050E00E94153B79018A0187
:10101000CF59DC4F688179818A819B81F6012081DB
:10102000318142815381620F731F841F951F22E01B
:1010300030E040E050E00E94153BC801B7010E943B
:10104000DA0A8091BF039091C003969587954091ED
:101050006B0450916C046091C1037091C20376954A
:10106000679520916D0430916E04620F731F840F99
:10107000951F0E94ED0B81E08093480482E060E0C0
:101080000E94BD1182E061E00E94701283E060E086
:101090000E94BD1183E061E00E94701281E067EA66
:1010A00074E042E050E00E94740E80E06EE574E06F
:1010B00042E050E00E94740E84EB96E06AE672E033
:1010C0000E94C5186DB77EB78091820990918309FF
:1010D000009721F48091110390911203681B790B02
:1010E00084EB96E04AE050E00E94A618DF91CF9191
:1010F0001F910F91FF90EF90DF90CF900895109285
:101100007304109274041092750410927604109275
:101110007704109278041092790410927A04109255
:10112000700410926F041092720410927104109265
:101130006C0410926B0410926E0410926D048091F6
:10114000B90380936A0408958091B903853028F427
:101150008091B9038F5F8093B9038091B90308959B
:101160008091B903882329F08091B903815080933D
:10117000B9038091B9030895FC01DB0180916F04EC
:101180009091700420916B0430916C04821B930B3E
:1011900091838083809171049091720420916D04F9
:1011A00030916E04821B930B8D939C9381E0089584
:1011B00097FF03C0E0E0F0E010C0E0916A04F0E0C7
:1011C000EE0FFF1FE35EFC4F0190F081E02DE05831
:1011D000F0408E179F0708F4FC01F0936C04E09335
:1011E0006B0477FF03C060E070E010C0E0916A0418
:1011F000F0E0EE0FFF1FE75DFC4F0190F081E02D66
:10120000E05AF040E617F70708F4BF0170936E0448
:1012100060936D040895AF92BF92CF92DF92EF92E8
:10122000FF920F931F9340916F04509170044250AE
:1012300050402091710430917204225030408091CE
:101240006A0466E0869FC001112460916B0470916E
:101250006C048A01061B170B60916D0470916E047B
:101260007901E61AF70A8B5C9C4F6CE174E0F5E0BB
:10127000CF2ED12CE5E0AE2EB12C0E9487351F91E8
:101280000F91FF90EF90DF90CF90BF90AF900895B7
:10129000AF92BF92CF92DF92EF92FF920F931F9384
:1012A00080916A0426E0829FC001112440916B0462
:1012B00050916C0420916D0430916E048B5C9C4FB6
:1012C0006CE174E000E010E0EE24FF24B0E8CB2EE7
:1012D000D12CA0EAAA2EB12C0E9487351F910F9124
:1012E000FF90EF90DF90CF90BF90AF9008950F9355
:1012F0001F9360916F047091700480916B049091C2
:101300006C04681B790B40917104509172048091B8
:101310006D0490916E04481B590B8CE194E022E01F
:1013200030E000E018EF0E94021C1F910F91089519
:10133000AF92BF92CF92DF92EF92FF920F931F93E3
:101340005A016B01A82FBB27A7FDB09500D00F92C3
:1013500069E573E0FD0184E0EE0FFF1F8A95E1F778
:10136000E60FF71F2081318142815381AA0FBB1FF5
:10137000CD01019613E0880F991F1A95E1F7680FC8
:10138000791FFB01E080F18002811381A75DBC4FD2
:101390008D919C91A0E0B0E0EDB7FEB78183928380
:1013A000A383B483C601B501AA24BB2465010E94AE
:1013B00036190F900F900F900F901F910F91FF9083
:1013C000EF90DF90CF90BF90AF900895AF92BF9213
:1013D000CF92DF92EF92FF920F931F935A016B010E
:1013E000A82FBB27A7FDB09500D00F92FD0104E008
:1013F000EE0FFF1F0A95E1F789E593E0E80FF91F6B
:101400002481358146815781E484F58406851785DA
:10141000AA0FBB1FA35EBC4F8D919C91A0E0B0E0D2
:10142000EDB7FEB781839283A383B483C601B50170
:10143000AA24BB2465010E9436190F900F900F90CB
:101440000F901F910F91FF90EF90DF90CF90BF9082
:10145000AF9008952F923F924F925F926F927F923A
:101460008F929F92AF92BF92CF92DF92EF92FF92B4
:101470000F931F93DF93CF9300D00F92CDB7DEB7BA
:10148000182F092F7A8369830E9448090E947709DF
:10149000212F302FC9019C838B83F1E02F2E312C1B
:1014A0006CC0EB81FC81448155816681778180919C
:1014B0006A040E9498092B013C0180916D0490916F
:1014C0006E04A0E0B0E0481A590A6A0A7B0AEB8170
:1014D000FC81408151816281738180916A040E9404
:1014E000E6094B015C0180916B0490916C04A0E0D3
:1014F000B0E0881A990AAA0ABB0AEB81FC814485EC
:1015000055856685778580916A040E9498096B01EC
:101510007C0180916D0490916E04A0E0B0E0C81A47
:10152000D90AEA0AFB0AEB81FC8140855185628574
:10153000738580916A040E94E6098B019C01809169
:101540006B0490916C04A0E0B0E0081B190B2A0B0F
:101550003B0B8CE194E0B401A20198018601EFE11C
:10156000EE2EE8EFFE2E0E94361C0894211C311C42
:101570008B819C8108969C838B83E981FA812E164E
:101580003F060CF48ECF0F900F900F900F90CF91DD
:10159000DF911F910F91FF90EF90DF90CF90BF9060
:1015A000AF909F908F907F906F905F904F903F9003
:1015B0002F900895AF92BF92CF92DF92EF92FF9259
:1015C0000F931F937B018C0159016A0180916A047A
:1015D000B801A7010E94E60970936C0460936B0444
:1015E00080916A04B601A5010E94980920916B04BC
:1015F00030916C0437FF03C0E0E0F0E010C0E091F0
:101600006A04F0E0EE0FFF1FE35EFC4F0190F081F3
:10161000E02DE058F0402E173F0708F4F901F09351
:101620006C04E0936B0477FF03C060E070E010C0CF
:10163000E0916A04F0E0EE0FFF1FE75DFC4F0190C0
:10164000F081E02DE05AF040E617F70708F4BF01FB
:1016500070936E0460936D041F910F91FF90EF9053
:10166000DF90CF90BF90AF9008958091B9038093A1
:101670006A044091730450917404609175047091F0
:1016800076040E94E6097093700460936F044091A1
:101690007704509178046091790470917A04809174
:1016A0006A040E9498097093720460937104809197
:1016B0006A040895AF92BF92CF92DF92EF92FF92A9
:1016C0000F931F93A82FBB27A7FDB09500D00F92B3
:1016D000CD01880F991FFC01E75DFC4FE080F18090
:1016E00000E010E0E9E5F3E034E0AA0FBB1F3A9513
:1016F000E1F7AE0FBF1FAD90BD90CD90DC9001968D
:1017000023E0880F991F2A95E1F7E80FF91F8081E0
:101710009181A281B381EDB7FEB781839283A383C8
:10172000B483CB01BA0120E030E040E050E00E94F9
:1017300036190F900F900F900F901F910F91FF90FF
:10174000EF90DF90CF90BF90AF900895AF92BF928F
:10175000CF92DF92EF92FF920F931F93992787FD0D
:10176000909500D00F92FC01EE0FFF1FE35EFC4F3F
:10177000E080F18000E010E0B4E0880F991FBA9596
:10178000E1F7E9E5F3E0DF01A80FB91F1496AD908A
:10179000BD90CD90DC901797E80FF91F8485958553
:1017A000A685B785EDB7FEB781839283A383B48303
:1017B000CB01BA0120E030E040E050E00E94361951
:1017C0000F900F900F900F901F910F91FF90EF903F
:1017D000DF90CF90BF90AF90089597FF03C080E057
:1017E00090E00EC0E0916A04F0E0EE0FFF1FE35EB0
:1017F000FC4F0190F081E02DE817F90708F4CF01C4
:101800009093700480936F0477FF03C060E070E0F2
:101810000EC0E0916A04F0E0EE0FFF1FE75DFC4FA1
:101820000190F081E02DE617F70708F4BF017093EF
:10183000720460937104AC0160E070E080916A040E
:101840000E94A60B609373047093740480937504D4
:1018500090937604409171045091720460E070E0BE
:1018600080916A040E945A0B609377047093780405
:101870008093790490937A04089540916F04509175
:1018800070042091710430917204260F371F840F69
:10189000951FB9010E94ED0B08952F923F924F9230
:1018A0005F926F927F928F929F92AF92BF92CF92F0
:1018B000DF92EF92FF920F931F93DF93CF93CDB7F9
:1018C000DEB7A3970FB6F894DEBF0FBECDBF182FBB
:1018D000092F84EB96E06DEC72E00E94C81884EB4F
:1018E00096E06EEC72E00E94C8180E94F4106B0142
:1018F0007C01212F302FC9014C015E010894A11CED
:10190000B11C2FE0222E312C2C0E3D1E96E1492ECB
:10191000512C4C0E5D1E8DE1682E712C6C0E7D1EBF
:101920000E94F4106C197D098E099F09695E73404D
:101930008040904038F084EB96E060ED72E00E94C9
:10194000C81880C084EB96E00E948215892B41F371
:10195000C50164EB76E04AE00E940719CE010896C3
:10196000B50140E050E021E030E00E94901ACE0145
:10197000089668ED72E00E949019182FCE01089623
:101980000E94FA1A112309F04CC0C101B50140E0D0
:1019900050E021E030E00E94901AC1016AED72E04F
:1019A0000E949019182FC1010E94FA1A112369F19F
:1019B000C201B5014AE050E023E130E00E94901AF4
:1019C000C2010E947F197B018C01C301B50142E075
:1019D00050E029E030E00E94901AC3010E947F1974
:1019E000F4016483758386839783E082F1820283A6
:1019F0001383C3010E94FA1AC2010E94FA1A84EBEF
:101A000096E06CED72E00E94C8180E94F4106B0121
:101A10007C01C5010E94FA1A88E090E0880E991EA8
:101A20007FCFC5010E94FA1A0E94F410AB01BC01DD
:101A30004C195D096E097F0984EB96E02AE030E0DD
:101A40000E943E1880E090E0A3960FB6F894DEBFA7
:101A50000FBECDBFCF91DF911F910F91FF90EF90FF
:101A6000DF90CF90BF90AF909F908F907F906F90BE
:101A70005F904F903F902F9008952F923F924F92FA
:101A80005F926F927F928F929F92AF92BF92CF920E
:101A9000DF92EF92FF920F931F93DF93CF93CDB717
:101AA000DEB7E7970FB6F894DEBF0FBECDBF2CA30D
:101AB0003DA34EA35FA368A779A78AA79BA7ACA65F
:101AC000BDA6CEA6DFA6E8AAF9AA0AAB1BABA8A4BE
:101AD000B9A4CAA4DBA46CA07DA08EA09FA028A856
:101AE00039A84AA85BA88CA59DA5AEA5BFA58CABBF
:101AF0009DABAEABBFAB84EB96E06DEC72E00E94A9
:101B0000C8180E94F4107B018C010E94F4106E1919
:101B10007F09800B910B695E73408040904068F0B4
:101B200084EB96E060ED72E00E94C81868EE73E006
:101B300080E090E00E940211DECF84EB96E06FED32
:101B400072E00E94C51884EB96E0B601A5012AE078
:101B500030E00E94521884EB96E062EE72E00E9440
:101B6000C51884EB96E0B401A3012AE030E00E949E
:101B7000521884EB96E062EE72E00E94C51884EB86
:101B800096E0B201A1012AE030E00E94521884EBF5
:101B900096E062EE72E00E94C51884EB96E04CA9D4
:101BA0005DA96EA97FA92AE030E00E9492180E94E8
:101BB000F4104B015C018E010F5F1F4FC8016DECEB
:101BC00072E00E945D1A48E0C42ED12CCC0EDD1EBE
:101BD000702E612E3FE0E32EF12CEC0EFD1E0E94D4
:101BE000F410681979098A099B096151774280408C
:101BF000904048F084EB96E060ED72E00E94C818D7
:101C0000EE24FF2453C084EB96E00E948215892BBA
:101C100031F3C60164EB76E04AE00E940719872D94
:101C2000962DB6010E94E31AC6010E94FA1AC70156
:101C3000672D762D40E050E021E030E00E94901AC0
:101C4000C70164EE72E00E949019182FC7010E942C
:101C5000FA1A112321F28E010A5E1F4FC801672D67
:101C6000762D42E050E023E030E00E94901AC80157
:101C70000E947F19AB01BC0184EB96E02AE030E0C2
:101C80000E949218C8010E94FA1A8E01035E1F4F2B
:101C9000C801672D762D42E050E00E94D71AC80196
:101CA0000E947F197B01C8010E94FA1ACE01019699
:101CB0000E94FA1AC701E7960FB6F894DEBF0FBE6E
:101CC000CDBFCF91DF911F910F91FF90EF90DF90EB
:101CD000CF90BF90AF909F908F907F906F905F90CC
:101CE0004F903F902F900895883008F078C0E82FEB
:101CF000F0E0EE0FFF1FE558FB4F718360838330E8
:101D0000D9F0843030F4813009F444C0823060F47A
:101D100039C0853051F18530D8F0863009F446C09D
:101D2000873009F05CC04FC0809169008C7F842BA4
:101D300080936900E89A089580916900440F551FC7
:101D4000440F551F837F842B80936900E99A08957F
:101D50008091690074E0440F551F7A95E1F78F7CFC
:101D6000842B80936900EA9A08958091690066E067
:101D7000440F551F6A95E1F78F73842B8093690098
:101D8000EB9A089580916A008C7F842B80936A007F
:101D9000EC9A089580916A00440F551F440F551F17
:101DA000837F842B80936A00ED9A089580916A0066
:101DB00024E0440F551F2A95E1F78F7C842B8093F4
:101DC0006A00EE9A089580916A0096E0440F551FCC
:101DD0009A95E1F78F73842B80936A00EF9A0895A8
:101DE0001F920F920FB60F920BB60F9211242F93E2
:101DF0003F934F935F936F937F938F939F93AF9393
:101E0000BF93EF93FF9380917F0490918004892B7F
:101E100029F0E0917F04F09180041995FF91EF91F2
:101E2000BF91AF919F918F917F916F915F914F91F2
:101E30003F912F910F900BBE0F900FBE0F901F90F0
:101E400018951F920F920FB60F920BB60F92112496
:101E50002F933F934F935F936F937F938F939F93B2
:101E6000AF93BF93EF93FF9380918104909182048D
:101E7000892B29F0E0918104F09182041995FF915A
:101E8000EF91BF91AF919F918F917F916F915F91F2
:101E90004F913F912F910F900BBE0F900FBE0F905F
:101EA0001F9018951F920F920FB60F920BB60F92BC
:101EB00011242F933F934F935F936F937F938F934F
:101EC0009F93AF93BF93EF93FF938091830490917F
:101ED0008404892B29F0E0918304F09184041995FE
:101EE000FF91EF91BF91AF919F918F917F916F91F2
:101EF0005F914F913F912F910F900BBE0F900FBEAE
:101F00000F901F9018951F920F920FB60F920BB65D
:101F10000F9211242F933F934F935F936F937F936F
:101F20008F939F93AF93BF93EF93FF93809185041B
:101F300090918604892B29F0E0918504F091860424
:101F40001995FF91EF91BF91AF919F918F917F91E3
:101F50006F915F914F913F912F910F900BBE0F901A
:101F60000FBE0F901F9018951F920F920FB60F92F1
:101F70000BB60F9211242F933F934F935F936F9360
:101F80007F938F939F93AF93BF93EF93FF93809132
:101F90007B0490917C04892B29F0E0917B04F091E3
:101FA0007C041995FF91EF91BF91AF919F918F9113
:101FB0007F916F915F914F913F912F910F900BBE49
:101FC0000F900FBE0F901F9018951F920F920FB693
:101FD0000F920BB60F9211242F933F934F935F9361
:101FE0006F937F938F939F93AF93BF93EF93FF93E1
:101FF00080917D0490917E04892B29F0E0917D04ED
:10200000F0917E041995FF91EF91BF91AF919F914F
:102010008F917F916F915F914F913F912F910F9091
:102020000BBE0F900FBE0F901F9018951F920F922E
:102030000FB60F920BB60F9211242F933F934F932D
:102040005F936F937F938F939F93AF93BF93EF9320
:10205000FF938091870490918804892B29F0E09167
:102060008704F09188041995FF91EF91BF91AF918A
:102070009F918F917F916F915F914F913F912F91A0
:102080000F900BBE0F900FBE0F901F9018951F92D0
:102090000F920FB60F920BB60F9211242F933F930E
:1020A0004F935F936F937F938F939F93AF93BF9360
:1020B000EF93FF938091890490918A04892B29F0F2
:1020C000E0918904F0918A041995FF91EF91BF91F5
:1020D000AF919F918F917F916F915F914F913F91C0
:1020E0002F910F900BBE0F900FBE0F901F90189561
:1020F000382F863308F0365320917B00832F869546
:102100008695869590E08170907043E0880F991FC6
:102110004A95E1F7277F282B20937B003770809129
:10212000BA038295880F880F807C832B80937C0074
:1021300080917A00806480937A0080917A0086FD95
:10214000FCCF2091780040917900942F80E030E01E
:10215000282B392BC90108951F920F920FB60F92A9
:1021600011242F933F938F939F93AF93BF938091AD
:102170008F0490919004A0919104B09192043091B9
:1021800093040196A11DB11D232F2D5F2D3720F043
:102190002D570196A11DB11D2093930480938F04A8
:1021A00090939004A0939104B093920480918B0437
:1021B00090918C04A0918D04B0918E040196A11D84
:1021C000B11D80938B0490938C04A0938D04B093E5
:1021D0008E04BF91AF919F918F913F912F910F905E
:1021E0000FBE0F901F9018958FB7F89420918F0411
:1021F0003091900440919104509192048FBFB901A5
:10220000CA0108959B01AC017FB7F89480918B04BB
:1022100090918C04A0918D04B0918E0466B5A89B1A
:1022200005C06F3F19F00196A11DB11D7FBFBA2FE8
:10223000A92F982F8827860F911DA11DB11D62E03F
:10224000880F991FAA1FBB1F6A95D1F7BC012DC02B
:10225000FFB7F89480918B0490918C04A0918D0429
:10226000B0918E04E6B5A89B05C0EF3F19F001962A
:10227000A11DB11DFFBFBA2FA92F982F88278E0F40
:10228000911DA11DB11DE2E0880F991FAA1FBB1F60
:10229000EA95D1F7861B970B885E9340C8F22150D0
:1022A00030404040504068517C4F21153105410578
:1022B000510571F60895789484B5826084BD84B523
:1022C000816084BD85B5826085BD85B5816085BD31
:1022D000EEE6F0E0808181608083E1E8F0E010824A
:1022E000808182608083808181608083E0E8F0E08B
:1022F000808181608083E1EBF0E080818460808375
:10230000E0EBF0E0808181608083E1E9F0E08081B2
:1023100082608083808181608083E0E9F0E0808159
:1023200081608083E1EAF0E0808182608083808147
:1023300081608083E0EAF0E0808181608083E1E277
:10234000F1E0808182608083808181608083E0E22F
:10235000F1E0808181608083EAE7F0E08081846041
:10236000808380818260808380818160808380819E
:10237000806880831092C1000895CF93DF93482F27
:1023800050E0CA0188589E4FFC0134914E5C5E4F6C
:10239000FA018491882369F190E0880F991FFC016C
:1023A000EC51FF4FA591B491FC01E250FF4FC59154
:1023B000D491662351F42FB7F8948C91932F909574
:1023C00089238C93888189230BC0623061F42FB7F5
:1023D000F8948C91932F909589238C938881832BEB
:1023E00088832FBF06C09FB7F8948C91832B8C9362
:1023F0009FBFDF91CF910895893009F449C08A3099
:10240000A0F4843051F1853040F4823079F183308A
:1024100000F5813009F063C026C0873079F188303B
:1024200098F5863009F05BC025C08D3009F442C0B4
:102430008E3028F48B30B1F18C30C0F52DC0803156
:1024400009F442C0813109F445C08F3009F047C01A
:1024500037C0809180008F7703C0809180008F7D8E
:1024600080938000089584B58F7702C084B58F7DF6
:1024700084BD08958091B0008F7703C08091B00033
:102480008F7D8093B0000895809190008F7707C072
:10249000809190008F7D03C080919000877F809312
:1024A000900008958091A0008F7707C08091A000D0
:1024B0008F7D03C08091A000877F8093A000089546
:1024C000809120018F7703C0809120018F7D8093C0
:1024D0002001089580912001877F80932001089535
:1024E000FF920F931F93F62E482F50E0CA0182549B
:1024F0009E4FFC012491CA0188589E4FFC01149103
:102500004E5C5E4FFA0104910023C9F0222319F0BA
:10251000822F0E94FC11E02FF0E0EE0FFF1FE2502F
:10252000FF4FA591B4919FB7F894FF2021F48C91AF
:102530001095812302C08C91812B8C939FBF1F919A
:102540000F91FF9008950F931F93482F50E0CA01F9
:1025500082549E4FFC012491CA0188589E4FFC0171
:1025600004914E5C5E4FFA011491112319F420E09E
:1025700030E015C0222319F0822F0E94FC11812F18
:1025800090E0880F991F885E9E4FFC01A591B49141
:102590008C9120E030E0802311F021E030E0C9018F
:1025A0001F910F91089508951F920F920FB60F92E9
:1025B0000BB60F9211242F933F934F938F939F93BA
:1025C000EF93FF934091C6002091D4043091D5043D
:1025D0002F5F3F4F2F7330708091D6049091D704B6
:1025E0002817390759F0E091D404F091D504EC563E
:1025F000FB4F40833093D5042093D404FF91EF9197
:102600009F918F914F913F912F910F900BBE0F9003
:102610000FBE0F901F90189508951F920F920FB63E
:102620000F920BB60F9211242F933F934F938F93DA
:102630009F93EF93FF934091CE0020915C053091E2
:102640005D052F5F3F4F2F73307080915E05909135
:102650005F052817390759F0E0915C05F0915D0599
:10266000E45EFA4F408330935D0520935C05FF9153
:10267000EF919F918F914F913F912F910F900BBEB2
:102680000F900FBE0F901F90189508951F920F92F4
:102690000FB60F920BB60F9211242F933F934F93C7
:1026A0008F939F93EF93FF934091D6002091E40581
:1026B0003091E5052F5F3F4F2F7330708091E60515
:1026C0009091E7052817390759F0E091E405F0915A
:1026D000E505EC55FA4F40833093E5052093E4057A
:1026E000FF91EF919F918F914F913F912F910F907B
:1026F0000BBE0F900FBE0F901F90189508951F925C
:102700000F920FB60F920BB60F9211242F933F9397
:102710004F938F939F93EF93FF93409136012091B6
:102720006C0630916D062F5F3F4F2F733070809194
:102730006E0690916F062817390759F0E0916C06E4
:10274000F0916D06E45DF94F408330936D06209360
:102750006C06FF91EF919F918F914F913F912F9137
:102760000F900BBE0F900FBE0F901F901895E09129
:10277000C006F091C106E05CFF4F819191912081EC
:102780003181821B930B8F739070892B11F00E9403
:10279000D312E091DF06F091E006E05CFF4F8191FB
:1027A000919120813181821B930B8F739070892BC3
:1027B00011F00E940C13E091FE06F091FF06E05C20
:1027C000FF4F8191919120813181821B930B8F73F7
:1027D0009070892B11F00E944513E0911D07F09134
:1027E0001E07E05CFF4F8191919120813181821B16
:1027F000930B8F739070892B11F00E947E130895B4
:102800001F920F920FB60F920BB60F9211242F93B7
:102810003F938F939F93EF93FF93209118053091EF
:10282000190580911A0590911B052817390731F475
:102830008091C1008F7D8093C10014C0E0911A0582
:10284000F0911B05E852FB4F208180911A05909171
:102850001B0501968F73907090931B0580931A054A
:102860002093C600FF91EF919F918F913F912F91FF
:102870000F900BBE0F900FBE0F901F9018951F92D8
:102880000F920FB60F920BB60F9211242F933F9316
:102890008F939F93EF93FF932091A0053091A10513
:1028A0008091A2059091A3052817390731F48091F2
:1028B000C9008F7D8093C90014C0E091A205F091FA
:1028C000A305E05AFA4F20818091A2059091A305BB
:1028D00001968F7390709093A3058093A205209327
:1028E000CE00FF91EF919F918F913F912F910F908B
:1028F0000BBE0F900FBE0F901F9018951F920F9256
:102900000FB60F920BB60F9211242F933F938F9314
:102910009F93EF93FF932091280630912906809191
:102920002A0690912B062817390731F48091D1009F
:102930008F7D8093D10014C0E0912A06F0912B0680
:10294000E851FA4F208180912A0690912B0601963A
:102950008F73907090932B0680932A062093D60055
:10296000FF91EF919F918F913F912F910F900BBE0F
:102970000F900FBE0F901F9018951F920F920FB6D9
:102980000F920BB60F9211242F933F938F939F9327
:10299000EF93FF932091B0063091B1068091B2067B
:1029A0009091B3062817390731F4809131018F7D5A
:1029B0008093310114C0E091B206F091B306E05962
:1029C000F94F20818091B2069091B30601968F73E2
:1029D00090709093B3068093B20620933601FF91D6
:1029E000EF919F918F913F912F910F900BBE0F9080
:1029F0000FBE0F901F901895AF92BF92DF92EF928B
:102A0000FF920F931F93CF93DF93EC017A018B0119
:102A1000DD24403081EE580780E0680780E07807C9
:102A200011F0DD24D39491E0A92EB12CEC89FD891D
:102A3000DD2069F0C5010E8C02C0880F991F0A9431
:102A4000E2F7808360E079E08DE390E005C01082DA
:102A500060E874E88EE190E0A80197010E94F33AE3
:102A60002150304040405040569547953795279526
:102A700080E12030380720F0DD2011F0DD24D6CFB2
:102A8000E889F9893083EA89FB892083EE89FF8907
:102A9000408121E030E0C9010A8C02C0880F991FF3
:102AA0000A94E2F7482B4083EE89FF894081C901EF
:102AB0000B8C02C0880F991F0A94E2F7482B4083C1
:102AC000EE89FF894081C9010C8C02C0880F991FD3
:102AD0000A94E2F7482B4083EE89FF8980810D8CB0
:102AE00002C0220F331F0A94E2F720952823208387
:102AF000DF91CF911F910F91FF90EF90DF90BF90EA
:102B0000AF900895DC011C96ED91FC911D97E05C5F
:102B1000FF4F2191319180819181281B390B2F73B7
:102B20003070C9010895DC011C96ED91FC911D9750
:102B3000E05CFF4F20813181E054F040DF01AE5B6B
:102B4000BF4F8D919C9111972817390719F42FEFDA
:102B50003FEF07C08D919C91E80FF91F8081282FCE
:102B600030E0C9010895DC011C96ED91FC911D97A0
:102B7000E05CFF4F20813181E054F040DF01AE5B2B
:102B8000BF4F8D919C9111972817390719F42FEF9A
:102B90003FEF10C08D919C911197E80FF91F208194
:102BA0008D919C91119701968F73907011969C93C3
:102BB0008E9330E0C9010895FC0186859785DC017C
:102BC000A05CBF4FFC01EE5BFF4F2D913C91119734
:102BD0008081918128173907C1F70895CF93DF933A
:102BE000EC01EE85FF85E05CFF4F20813181E054F0
:102BF000F0402F5F3F4F2F733070DF01AE5BBF4F50
:102C00008D919C91119728173907D1F3E05CFF4F04
:102C100080819181E054F040E80FF91F6083EE85D8
:102C2000FF85E05CFF4F31832083EE89FF8920819F
:102C300081E090E00D8C02C0880F991F0A94E2F7A2
:102C4000282B208381E090E0DF91CF9108951F939E
:102C50001092B7061092B60628EE33E040E050E03E
:102C60002093B8063093B9064093BA065093BB063A
:102C700067EC73E07093B5066093B40684E994E062
:102C80009093C1068093C00688ED94E09093C306AC
:102C90008093C20685EC90E09093C5068093C406AD
:102CA00084EC90E09093C7068093C60680EC90E099
:102CB0009093C9068093C80681EC90E09093CB0670
:102CC0008093CA0686EC90E09093CD068093CC0664
:102CD00014E01093CE06B3E0B093CF06A7E0A09324
:102CE000D006F5E0F093D106E1E0E093D206109231
:102CF000D6061092D5062093D7063093D806409377
:102D0000D9065093DA067093D4066093D3068CE10B
:102D100095E09093E0068093DF0680E695E090933F
:102D2000E2068093E1068DEC90E09093E4068093B8
:102D3000E3068CEC90E09093E6068093E50688EC41
:102D400090E09093E8068093E70689EC90E09093FA
:102D5000EA068093E9068EEC90E09093EC0680936F
:102D6000EB061093ED06B093EE06A093EF06F093FA
:102D7000F006E093F1061092F5061092F406209307
:102D8000F6063093F7064093F8065093F9067093D1
:102D9000F3066093F20684EA95E09093FF06809331
:102DA000FE0688EE95E0909301078093000785ED7D
:102DB00090E0909303078093020784ED90E0909356
:102DC00005078093040780ED90E0909307078093B8
:102DD000060781ED90E0909309078093080786ED40
:102DE00090E090930B0780930A0710930C07B09321
:102DF0000D07A0930E07F0930F07E09310071092B2
:102E00001407109213072093150730931607409369
:102E100017075093180770931207609311078CE2FD
:102E200096E090931E0780931D0780E796E09093AD
:102E3000200780931F0785E391E0909322078093FA
:102E4000210784E391E0909324078093230780E394
:102E500091E0909326078093250781E391E090937A
:102E600028078093270786E391E090932A078093B1
:102E7000290710932B07B0932C07A0932D07F093ED
:102E80002E07E0932F071F910895CF93DF930E94A1
:102E90005B110E94BD07C7EBD3E10E941F0620977C
:102EA000E1F30E94B713F9CF0895CF92DF92EF922A
:102EB000FF920F931F93CF93DF937C016B018A01E5
:102EC000C0E0D0E00FC0D6016D916D01D701ED914A
:102ED000FC910190F081E02DC7011995C80FD91F11
:102EE000015010400115110571F7CE01DF91CF910E
:102EF0001F910F91FF90EF90DF90CF900895EF9288
:102F0000FF920F931F938C01DC01ED91FC910190D6
:102F1000F081E02D6DE019957C01D801ED91FC91D7
:102F20000190F081E02DC8016AE019959C012E0DF9
:102F30003F1DC9011F910F91FF90EF900895EF92EF
:102F4000FF920F931F937C01DC01ED91FC910190A6
:102F5000F081E02D19958C01C7010E947F17080FA1
:102F6000191FC8011F910F91FF90EF900895CF9303
:102F7000DF93DB010D900020E9F71197A61BB70B3B
:102F8000EC01E881F9810280F381E02DAD01199512
:102F9000DF91CF9108954F925F927F928F929F928F
:102FA000AF92BF92CF92DF92EF92FF920F931F9357
:102FB000DF93CF93CDB7DEB7A1970FB6F894DEBFFE
:102FC0000FBECDBF2C01742ECB01223008F42AE0B5
:102FD00019A231E2C32ED12CCC0EDD1E822E9924F3
:102FE000AA24BB24672D752FA50194010E94F33AF2
:102FF00079018A01C801B701A50194010E94AD3A87
:10300000472D461B0894C108D1084A3014F4405D8E
:1030100001C0495CF6014083E114F104010511058A
:1030200021F07E2C5F2DC801DDCFC201B6010E94C8
:10303000B717A1960FB6F894DEBF0FBECDBFCF91E4
:10304000DF911F910F91FF90EF90DF90CF90BF9095
:10305000AF909F908F907F905F904F900895DC018C
:103060002115310541F4ED91FC910190F081E02DA5
:10307000642F199508950E94CB170895EF92FF923F
:103080000F931F937C010E942F188C01C7010E948F
:103090007F179C01200F311FC9011F910F91FF90D5
:1030A000EF900895CF92DF92EF92FF920F931F93CC
:1030B000CF93DF93EC016A017B012115310541F4C7
:1030C000E881F9810190F081E02D642F19951FC0EE
:1030D0002A303105D1F477FF17C0E881F9810190DA
:1030E000F081E02D6DE219958C0144275527BA0136
:1030F0004C195D096E097F09CE012AE00E94CB17A9
:103100009801280F391F04C02AE00E94CB179C01A8
:10311000C901DF91CF911F910F91FF90EF90DF9048
:10312000CF900895EF92FF920F931F937C010E941E
:1031300052188C01C7010E947F179C01200F311F7C
:10314000C9011F910F91FF90EF900895CF92DF92E8
:10315000EF92FF920F931F936C017B019A0100275E
:10316000F7FC0095102FB801A7010E9452188C019E
:10317000C6010E947F17080F191FC8011F910F91E8
:10318000FF90EF90DF90CF9008950E94B7170895B9
:10319000EF92FF920F931F937C010E94B7178C014F
:1031A000C7010E947F17080F191FC8011F910F91B7
:1031B000FF90EF900895CF93DF93EC010E94F410FD
:1031C000688779878A879B87E881F9810680F781FC
:1031D000E02DCE0119959C0197FF15C00E94F410B7
:1031E000288539854A855B85621B730B840B950B9B
:1031F0002C813D814E815F8162177307840795079B
:1032000018F32FEF3FEFC901DF91CF910895CF92CF
:10321000DF92FF920F931F93CF93DF93082FF92E26
:103220006B01142F66EE72E00E945D1AC6010E94C7
:10323000DB18BC01C12FDD27C7FDD09508C0802F4A
:103240009F2D0E94161AC6010E94DB18BC0177FD53
:1032500003C06C177D0799F7802F9F2DDF91CF91C9
:103260001F910F91FF90DF90CF9008952F923F9282
:103270004F925F926F927F928F929F92AF92BF9286
:10328000CF92DF92EF92FF920F931F93DF93CF9332
:10329000CDB7DEB73B014C0119012A016E897F8948
:1032A000888D998D6A197B098C099D09621A730AA8
:1032B000840A950AA40193010E94AD3AE218F3082A
:1032C00004091509A80197010E94153B2A0D3B1D11
:1032D0004C1D5D1DB901CA01CF91DF911F910F9166
:1032E000FF90EF90DF90CF90BF90AF909F908F9026
:1032F0007F906F905F904F903F902F900895FC01CA
:1033000080819181009729F420E030E040E050E096
:1033100004C00E942E3A9B01AC01B901CA01089574
:10332000DC01FB0114968D919C911597892B31F44A
:1033300061157105A9F090E0808108C00D90BC91E5
:10334000A02D6115710529F490E08C91882349F432
:1033500007C0CD010E94793A9C0190E0232B09F42B
:1033600091E0892F08950F931F93CF93DF93EC0182
:103370008B016F5F7F4F888199810E944D39009743
:1033800011F480E005C0998388831B830A8381E060
:10339000DF91CF911F910F910895CF93DF93EC01AF
:1033A00088819981892B29F08A819B8186179707CB
:1033B00060F4CE010E94B319882341F08C819D8175
:1033C000892B19F4E881F981108281E0DF91CF9196
:1033D0000895EF92FF920F931F93CF93DF93EC0129
:1033E0007B016C817D81E114F104C1F0411551052F
:1033F00099F08A01060F171FB8010E94CD19882382
:1034000069F0888199812C813D81820F931FB701DA
:103410000E94823A1D830C8381E001C080E0DF912D
:10342000CF911F910F91FF90EF900895DF93CF936D
:103430000F920F92CDB7DEB769831A82BE016F5F1C
:103440007F4F41E050E00E94E9190F900F90CF911B
:10345000DF910895CF93DF93EC01888199810097E4
:1034600011F00E94B538198218821D821C821B82BD
:103470001A82DF91CF910895EF92FF920F931F93DD
:10348000CF93DF93EC017B018A01BA010E94CD1931
:10349000882321F4CE010E942A1A07C01D830C83C1
:1034A00088819981B7010E94823ACE01DF91CF9144
:1034B0001F910F91FF90EF900895CF93DF93EC0150
:1034C000198218821B821A821D821C821E8261153B
:1034D000710551F0DB010D900020E9F71197A61B53
:1034E000B70BAD010E943C1ADF91CF9108950F9365
:1034F0001F93182F092F6115710559F0DB010D90ED
:103500000020E9F71197A61BB70BAD010E943C1AEA
:1035100002C00E942A1A812F902F1F910F910895A7
:10352000BF92CF92DF92EF92FF920F931F93CF93B0
:10353000DF93082FB92E6B017A01E90124173507B3
:1035400010F4EA017901802F9B2D67EE72E00E9452
:103550005D1AD60114968D919C9115978E159F0535
:10356000D0F08C179D0708F4EC01D601ED91FC9189
:103570001197EC0FFD1F108110826D917C916E0DE3
:103580007F1D802F9B2D0E94771AD601ED91FC9113
:10359000EC0FFD1F1083802F9B2DDF91CF911F918A
:1035A0000F91FF90EF90DF90CF90BF9008950F9311
:1035B0001F938C01FB01248135810E94901AC80160
:1035C0001F910F910895CF93DF93EC01FB018617B4
:1035D000970761F0608171816115710529F044815F
:1035E00055810E943C1A02C00E942A1ACE01DF9126
:1035F000CF910895FC01808191810E94B538089592
:10360000FC011382128287ED93E09183808375839E
:103610006483578346837187608753874287158AFF
:10362000158614861786168621E0248B8FEF9FEF70
:10363000938B828B918B808B268B08952F923F9258
:103640004F925F926F927F928F929F92AF92BF92B2
:10365000CF92DF92EF92FF920F931F93DF93CF935E
:10366000CDB7DEB72E970FB6F894DEBF0FBECDBF35
:103670009E878D871B015E834D83A701260171E024
:10368000C72ED12CC21AD30AC901880F991F6627E9
:103690007727681B790B7A8369836D807E80089415
:1036A0006108710883E0882E912C8E0C9F1C790193
:1036B00081E090E09C838B83AA24BB2410E0D80196
:1036C000A170B070B887AF83FA013196FA87E987A5
:1036D000B801627070707C876B8777C0D7FC0AC0B6
:1036E0000894E108F10889819A8102969A83898376
:1036F000C80ED91E0894A11CB11CAB81BC811296C6
:10370000BC83AB83EF81F885EF2B41F1AD85BE859E
:10371000ED91FC911197B501620D731D4D815E8194
:103720004E195F099701220F331F89859A85280F4B
:10373000391F0084F185E02DCD0182011995AD85F9
:10374000BE85ED91FC911197B701620D731D008448
:10375000F185E02DCD01A30194011995EB85FC8540
:10376000EF2B41F1AD85BE85ED91FC911197B10133
:103770006A197B094D815E814E195F099701220FFD
:10378000331F89859A85280F391F0084F185E02D24
:10379000CD0182011995AD85BE85ED91FC91119702
:1037A000B1016E197F090084F185E02DCD01A301DF
:1037B00094011995EB81FC81CE0EDF1E08946108FF
:1037C000710862E070E0860E971EAE14BF040CF420
:1037D00085CF2E960FB6F894DEBF0FBECDBFCF912A
:1037E000DF911F910F91FF90EF90DF90CF90BF90EE
:1037F000AF909F908F907F906F905F904F903F9091
:103800002F9008956F927F928F929F92AF92BF9266
:10381000CF92DF92EF92FF920F931F937C014B01A7
:103820003A0159016801DC01ED91FC91421B530BF7
:10383000220F331F2F5F3F4F0084F185E02D199534
:10384000C701B401A301950103E0EE24FF240E9407
:103850001E1B1F910F91FF90EF90DF90CF90BF90B4
:10386000AF909F908F907F906F9008952F923F928E
:103870004F925F926F927F928F929F92AF92BF9280
:10388000CF92DF92EF92FF920F931F93DF93CF932C
:1038900000D00F92CDB7DEB73C017C836B836A0109
:1038A0005901FA82E982222433249801241B350B22
:1038B00037FF03C0309521953F4FC5014B815C8197
:1038C000841B950B97FF03C0909581959F4F82179E
:1038D00093075CF481E0282E312CC601CB80DC807C
:1038E0009C838B83C80185015C018B819C81A81618
:1038F000B90644F4C501AB80BC809C838B83C801AE
:1039000086016C012501AB81BC814A1A5B0A7801F2
:10391000EC18FD08F7FE04C0F094E194F108F3946C
:10392000C016D10624F088248A94982C03C0B1E0F4
:103930008B2E912CC20162E070E00E94E03A8B0174
:1039400025C0D301ED91FC912114310441F0048094
:10395000F581E02DC301B6014B815C8107C0048075
:10396000F581E02DC3016B817C81A60129813A811B
:1039700019950E191F0917FF04C0C80CD91C040D96
:10398000151DEB81FC813196FC83EB834B815C81BF
:10399000A416B506B4F60F900F900F900F90CF912C
:1039A000DF911F910F91FF90EF90DF90CF90BF902C
:1039B000AF909F908F907F906F905F904F903F90CF
:1039C0002F9008954F925F926F927F928F929F9265
:1039D000AF92BF92CF92DF92EF92FF920F931F931D
:1039E0006C015B014A0139012801DC01ED91FC9178
:1039F0000284F385E02D87011995D601ED91FC91A4
:103A0000A40141505040440D551D0284F385E02D22
:103A1000C601B50193011995D601ED91FC91008481
:103A2000F185E02DC601B501A40192011995D601D9
:103A3000ED91FC910894A108B108A60CB71C008474
:103A4000F185E02DC601B501A401920119951F91E0
:103A50000F91FF90EF90DF90CF90BF90AF909F902D
:103A60008F907F906F905F904F900895CF92DF92EC
:103A7000EF92FF920F931F93DC016B017801ED91A0
:103A8000FC918A0101501040020F131F0680F7813C
:103A9000E02D960119951F910F91FF90EF90DF9007
:103AA000CF900895CF92DF92EF92FF920F931F93E2
:103AB000DC016A01C9017801ED91FC9111979B012C
:103AC00021503040280F391F0680F781E02DCD01AD
:103AD000860119951F910F91FF90EF90DF90CF9085
:103AE00008956F927F928F929F92AF92BF92CF92E2
:103AF000DF92EF92FF920F931F93CF93DF935C01BE
:103B00003A0169014801EB01C60ED71E0DC0D5016F
:103B1000ED91FC910084F185E02DC501BE01A3016A
:103B20009401870119952196CC15DD0584F3DF9169
:103B3000CF911F910F91FF90EF90DF90CF90BF90AA
:103B4000AF909F908F907F906F900895EF92FF922B
:103B50000F931F93FC017B01A081B18120853185EA
:103B6000028513851E960D90BC91A02D60E070E03B
:103B700040E050E0FD0119951F910F91FF90EF90EB
:103B800008952F923F924F925F926F927F928F9201
:103B90009F92AF92BF92CF92DF92EF92FF920F93DC
:103BA0001F93DF93CF93CDB7DEB72F970FB6F8945F
:103BB000DEBF0FBECDBF5C015E834D8318870F83D0
:103BC000FA86E986CB86DC0118968D919C9119972F
:103BD000681779070CF0A4C01A968D919C911B97D9
:103BE000481759070CF09CC0EC2DF0E0FF87EE87DA
:103BF000CF01880F991F8E0F9F1F880F991F860F67
:103C0000971F181619060CF08BC0CF01F3E0880F30
:103C1000991FFA95E1F7840F951F181619060CF0F5
:103C20007FC085E0289FA00111245A8349832B017E
:103C30001B011C825C81553011F480E005C0E981D4
:103C4000FA81EC5FFD4F84912C863D866D807E80ED
:103C500043011B82C82EDD2480FF1CC0D501ED91DD
:103C6000FC91BB85B13049F40480F581E02DC5019C
:103C7000B201A3012F81388522C00684F785E02D8B
:103C8000C5016C857D85A4012E853F858901EF8066
:103C9000F88423C0E985FA852F813885E217F30778
:103CA000E9F0D501ED91FC91BB85B13051F4048070
:103CB000F581E02DC501B201A30129853A85199549
:103CC0000DC00684F785E02DC5016C857D85A401B6
:103CD0002E853F858901E984FA841995EB81EF5F90
:103CE000EB832E853F85820E931E0894611C711C08
:103CF000E83021F0D594C7948C2DACCF3C813F5F48
:103D00003C834E855F85240E351E0894411C511C52
:103D100089819A8101969A838983363009F08ACF06
:103D20002F960FB6F894DEBF0FBECDBFCF91DF91B7
:103D30001F910F91FF90EF90DF90CF90BF90AF90C9
:103D40009F908F907F906F905F904F903F902F90BB
:103D50000895CF92EF92FF920F931F93CF93DF932B
:103D6000EC01262F6A3061F42C8930E003E0220F49
:103D7000331F0A95E1F78E859F85820F931F37C009
:103D80006D30C9F16C857D854E855F8508891989FF
:103D9000EA88FB88CC880E94C11D2C8986E0289F78
:103DA000B00111248C859D85680F791F7D876C87F4
:103DB0008E89882301F1422F50E08AEF9FEF9C010A
:103DC000429FC001439F900D529F900D1124288562
:103DD0003985820F931F861797076CF413E0440F01
:103DE000551F1A95E1F78E859F85840F951F9F8734
:103DF0008E871D861C8681E090E0DF91CF911F9118
:103E00000F91FF90EF90CF900895FC017587648724
:103E1000578746870895FC01662309F461E0648BA7
:103E20000895FC01738B628B718B608B08950895EC
:103E3000DC0158968C915897882329F06EBD0DB4FB
:103E400007FEFDCF089530E840E050E070E0832F9A
:103E500090E0862397235996ED91FC915A97969678
:103E60002C919697892B21F08081822B808304C02E
:103E700080812095282320835B96ED91FC915C97AF
:103E8000808197969C919797892B80835B96ED9183
:103E9000FC915C97908197968C9197978095892358
:103EA000808336954F5F5F4F4830510581F6089506
:103EB0000F931F938C01DC015F96ED91FC9190971D
:103EC000908199968C9199978095892380835D96AE
:103ED000ED91FC915E97908198968C9180958923C5
:103EE0008083C8010E94181FD8015D96ED91FC9156
:103EF0005E97808198969C91892B80831F910F916A
:103F000008950F931F938C01DC015F96ED91FC9156
:103F10009097808199969C919997892B80835D9643
:103F2000ED91FC915E97908198968C918095892374
:103F30008083C8010E94181FD8015D96ED91FC9105
:103F40005E97808198969C91892B80831F910F9119
:103F50000895CF92DF92EF92FF920F931F937C010F
:103F6000162FC42ED22E6AE20E94581FC70160E0AD
:103F70000E94811FF70162A5610FC7010E94811F86
:103F8000C70160E00E94811FF70162A56D0DC701A6
:103F90000E94811FC7016BE20E94581FC70160E0A9
:103FA0000E94811FF70163A56C0DC7010E94811F4C
:103FB000C70160E00E94811FF70163A5600FC70180
:103FC0000E94811FC7016CE20E94581F1F910F9130
:103FD000FF90EF90DF90CF900895FF920F931F9383
:103FE0008C01F62E672FDC015F96ED91FC91909786
:103FF000808199969C919997892B80835D96ED910C
:10400000FC915E97908198968C918095892380830E
:10401000C8010E94181FC8016F2D0E94181FD801E7
:104020005D96ED91FC915E97808198969C91892B8D
:1040300080831F910F91FF900895FF920F931F931C
:10404000CF93DF93EC01F22E132F77FD2EC08885DE
:104050009985681779074CF557FD27C08A859B8598
:104060004817590714F5262F2F5F042F0F5FCE0135
:104070000E94A91FEF8DF8A1808199A5892B8083CB
:10408000ED8DFE8D908188A5809589238083CE015A
:10409000612F0E94181FCE016F2D0E94181FED8DF9
:1040A000FE8D808198A5892B8083DF91CF911F9110
:1040B0000F91FF900895DF92EF92FF920F931F935D
:1040C000CF93DF93EC01FB017901D02E8885998590
:1040D00068177907D4F52A853B8542175307ACF555
:1040E000C701840F951F281739071CF47901E41ABA
:1040F000F50A042F01500E0DCE016E2F2E2F0E94B7
:10410000A91FEF8DF8A1808199A5892B8083ED8D62
:10411000FE8D908188A580958923808308C0CE017B
:10412000612F0E94181FCE016D2D0E94181F089448
:10413000E108F1088FEFE8168FEFF80681F7ED8DB3
:10414000FE8D808198A5892B8083DF91CF911F916F
:104150000F91FF90EF90DF900895DF92EF92FF9222
:104160000F931F93CF93DF93EC01FA017901D02EC7
:104170002885398562177307D4F58A859B8548178A
:104180005907ACF5C701860F971F281739071CF48C
:104190007901E61AF70A262F21502E0DCE014E2F57
:1041A0000E2F0E94A91FEF8DF8A1808199A5892B60
:1041B0008083ED8DFE8D908188A5809589238083F5
:1041C00008C0CE01612F0E94181FCE016D2D0E94E4
:1041D000181F0894E108F1088FEFE8168FEFF80632
:1041E00081F7ED8DFE8D808198A5892B8083DF91ED
:1041F000CF911F910F91FF90EF90DF900895EF9274
:10420000FF920F931F93FC017B01A081B181208558
:104210003185028513851E960D90BC91A02D60E01E
:1042200070E040E050E0FD0119951F910F91FF9063
:10423000EF900895AF92BF92CF92DF92EF92FF92EC
:104240000F931F93CF93DF936C015901E801DC01B9
:1042500018962D913C911997621773070CF057C06F
:104260001A96ED91FC911B974E175F070CF04FC00B
:10427000C501860F971F281739071CF45901A61A84
:10428000B70ACE01840F951FE817F9071CF4EF0158
:10429000C41BD50B262F21502A0D042F01500C0FC3
:1042A000C6010E94A91FD6015F96ED91FC919097DF
:1042B000808199969C919997892B80835D96ED9149
:1042C000FC915E97908198968C918095892380834C
:1042D0008E010EC0C6016F2D0E94181FC6016E2DE3
:1042E0000E94181F21971C161D06A4F301501040B0
:1042F0001016110614F4E501F6CFD6015D96ED9186
:10430000FC915E97808198969C91892B8083DF91A8
:10431000CF911F910F91FF90EF90DF90CF90BF90C2
:10432000AF9008951F93CF93DF93EC01162F66E3B0
:104330000E94581F13701D8B113081F0113028F02E
:104340001230A9F01330B1F523C08F89823019F4EF
:10435000CE0160EC14C0CE0168EC11C08F898230B0
:1043600019F4CE0160EA1CC0CE0168EA19C08F8939
:10437000823019F4CE0160E002C0CE0168E00E94F4
:10438000811F80E890E09987888780EA90E010C0DC
:104390008F89823019F4CE0160E602C0CE0168E652
:1043A0000E94811F80EA90E09987888780E890E0EA
:1043B0009B878A87DF91CF911F910895662311F41F
:1043C00060E201C061E20E94581F0895AF92BF925F
:1043D000CF92DF92EF92FF920F931F93CF93DF93D1
:1043E0005C01FB01EB012196D49031C08E010F5F7F
:1043F0001F4FFE016491C5010E94581F7801089467
:10440000E11CF11CF801C4900C2D0F77E701102F6F
:1044100008C0FE012196E491C5016E2F0E94811F04
:1044200011501123B1F7E701C00FD11DC7FE0EC017
:10443000FE018491682F70E06F3F710511F464EF05
:1044400071E0219680E090E00E940211DA94DD2074
:1044500069F6DF91CF911F910F91FF90EF90DF9060
:10446000CF90BF90AF9008950F931F93CF93DF939A
:10447000EC018B011BA61AA68AA161E00E94BD1166
:1044800089A161E00E94BD11E9A14E2F50E0FA011F
:10449000EE5CFE4FE491F0E0EE0FFF1FE250FF4FA5
:1044A000859194919E8F8D8FEAA12E2F30E0F90196
:1044B000EE5CFE4FE491F0E0EE0FFF1FE250FF4F85
:1044C0008591949198A38F8F48585E4FFA018491FB
:1044D00088A728583E4FF901849189A7888D8823A1
:1044E00061F00E94683580E00E94573581E00E94AB
:1044F000493580E00E9452353DC08DA161E00E94A7
:10450000BD118CA161E00E94BD11EDA14E2F50E0C4
:10451000FA01EE5CFE4FE491F0E0EE0FFF1FE25077
:10452000FF4FA591B491BC8FAB8FECA12E2F30E043
:10453000F901EE5CFE4FE491F0E0EE0FFF1FE25058
:10454000FF4F859194919A8F898F48585E4FFA0159
:1045500094919FA328583E4FF90184918EA38C918A
:10456000909598239C93E98DFA8D90818EA18095EA
:1045700089238083ED8DFE8D908188A58095892388
:1045800080838BA1882309F161E00E94BD118BA17A
:1045900061E00E94701264EF71E080E090E00E94A0
:1045A00002118BA160E00E94701264EF71E080E064
:1045B00090E00E9402118BA161E00E94701264EFF2
:1045C00071E080E090E00E9402110115110521F0D8
:1045D000CE01B8010E94E621DF91CF911F910F918A
:1045E00008951F93CF93DF93EC01162F6FEF76E0C2
:1045F0000E943422112351F4CE016AE377E00E9435
:10460000E62182E08AA781E08BA705C0CE0167E49E
:1046100077E00E94E621CE0164E577E00E94E62182
:10462000123041F4CE0166E30E94581FCE0160ECC7
:104630000E94811F1F8BDF91CF911F910895DF9200
:10464000EF92FF920F931F938C01F62EE42ED22E41
:1046500060E870E040EA50E00E94001B8FEE93E0BB
:10466000F80191838083F1A2E2A2D3A281E0808F3E
:1046700015A214A21F910F91FF90EF90DF90089563
:1046800082E090E0A0E0B0E08093300790933107A3
:10469000A0933207B0933307109247071092510747
:1046A0001092500787E094E090934F0780934E0755
:1046B00010925307109270071092710710927407AE
:1046C0001092760708952F923F924F925F926F92C9
:1046D0007F928F929F92AF92BF92CF92DF92EF9292
:1046E000FF920F931F93DF93CF93CDB7DEB7C754DD
:1046F000D0400FB6F894DEBF0FBECDBF582E492E66
:10470000FB013A01190180A191A1998B888B27E0C7
:1047100034E03F872E8782A18A8B83A18B8B84A173
:1047200095A1A6A1B7A18C8B9D8BAE8BBF8B80A5CD
:1047300091A5A2A5B3A5888F998FAA8FBB8F84A5B9
:1047400095A5A6A5B7A58C8F9D8FAE8FBF8F80A98D
:1047500088A381A992A9A3A9B4A989A39AA3ABA369
:10476000BCA385A996A9A7A9B0AD8DA39EA3AFA30D
:10477000B8A781AD92AD9AA789A71EA61DA63CA792
:104780002BA718AA7A018E01025F1F4F3BE2A32ECE
:10479000B12CAC0EBD1E4E010894811C911C35C07D
:1047A000D7018C918F3221F40894E11CF11C2DC0AB
:1047B000422F4E194D3008F04CE0C42EDD24C401C8
:1047C000B701A6010E94893AF401EC0DFD1D10828B
:1047D000C5010E94352AC501B801A40121E00E944B
:1047E0007D2F882351F4E52DF42D1382128287E06A
:1047F00094E091838083158266C0EC0CFD1CC80197
:104800000E94352AC50158018C01C7016FE270E092
:104810000E946E3A9C01009719F6E618F708F1011C
:10482000F182E082E52DF42DD80112968D919C91B4
:1048300013979383828387E094E091838083149617
:104840008C911497848315968C9115978583169671
:104850002D913D914D915C91199726833783408727
:1048600051871A962D913D914D915C911D9722870C
:104870003387448755871E962D913D914D915C91CC
:10488000519726873787408B518B52968C91529740
:10489000828B53962D913D914D915C915697238B30
:1048A000348B458B568B57962D913D914D915C9154
:1048B0005A97278B308F418F528F5B968D919C91A9
:1048C0005C97948F838F852D942DC95BDF4F0FB636
:1048D000F894DEBF0FBECDBFCF91DF911F910F9136
:1048E000FF90EF90DF90CF90BF90AF909F908F9010
:1048F0007F906F905F904F903F902F9008959F9280
:10490000AF92BF92CF92DF92EF92FF920F931F93DD
:10491000DF93CF93CDB7DEB7C657D0400FB6F8942C
:10492000DEBF0FBECDBFC82E992E8A01D22E43E026
:10493000A42EB12CAC0EBD1EC501A8019E012F5F97
:104940003F4F0E946323E980FA80E00EF11EF701D9
:10495000808147E054E02885882309F03FC08D819D
:104960009E819BA38AA359A348A38F818CA32DA3C7
:1049700089859A85AB85BC858EA39FA3A8A7B9A777
:104980008D859E85AF85B8898AA79BA7ACA7BDA753
:1049900089899A89AB89BC898EA79FA7A8ABB9AB37
:1049A0008D898AAB8E899F89A88DB98D8BAB9CAB85
:1049B000ADABBEAB8A8D9B8DAC8DBD8D8FAB98AFF3
:1049C000A9AFBAAF8E8D9F8D9CAF8BAF8C2D992DDB
:1049D000BE01605E7F4F48EE52E09FC0FE01FF9631
:1049E000118210825EAF4DAFFE01EE5BFF4F108271
:1049F0002223A9F02250CE01CD96223048F46EE455
:104A000077E0A7012D2D0E947D2F882381F407C018
:104A1000B501A7012D2D0E947D2F882329F48C2D0F
:104A2000992D0E94D5367BC0C5010E94352AF6E03B
:104A3000DF2259F0FE01E05BFF4F4081518162812E
:104A40007381CE01CD960E9425299E01265A3F4FA3
:104A5000FE01FF9680819181F9019383828387E033
:104A600094E091838083FE01EF5BFF4F8081F90129
:104A70008483FE01EE5BFF4F8081F9018583FE0197
:104A8000ED5BFF4F80819181A281B381F901868323
:104A90009783A087B187FE01E95BFF4F80819181F9
:104AA000A281B381F90182879387A487B587FE012C
:104AB000E55BFF4F80819181A281B381F9018687F7
:104AC0009787A08BB18BFE01E15BFF4F8081F901DD
:104AD000828BFE01E05BFF4F80819181A281B381D7
:104AE000F901838B948BA58BB68BFE01EC5AFF4F9B
:104AF00080819181A281B381F901878B908FA18FF1
:104B0000B28FFE01E85AFF4F80819181F901948FA5
:104B1000838F8C2D992DB901A7010E94DF378C2D31
:104B2000992DCA58DF4F0FB6F894DEBF0FBECDBF28
:104B3000CF91DF911F910F91FF90EF90DF90CF9079
:104B4000BF90AF909F900895EF92FF920F931F93A5
:104B5000CF93DF93EC01462F8C01055C1F4FC801FA
:104B600061E00E9411288823D1F0FC2EED2ECE01A9
:104B7000B80141E00E941E31882339F4CE01B8010A
:104B800040E00E941E31882351F0CE014E966F2DD9
:104B90007E2D0E946B2C882319F081E001C080E0FB
:104BA000DF91CF911F910F91FF90EF900895FC013D
:104BB000673020F086E1858380E00895262F30E07D
:104BC00060FD02C0663019F48DB58E7F02C08DB5D0
:104BD00081608DBD8CB58C7F8CBD4CB522FD02C033
:104BE00090E001C092E036952795822F8170842B4A
:104BF000892B8CBD81E00895FF920F931F93CF9373
:104C0000DF938B010E94F410EB01FF24FA94FEBCA9
:104C10000DB407FEFDCF8EB58F3F11F481E008C0C3
:104C20000E94F4106C1B7D0B6017710780F380E00D
:104C3000DF91CF911F910F91FF900895FC01848126
:104C400060E00E9470120895FC01848161E00E947E
:104C500070120895DC016EBDFA0120E030E00DB461
:104C600007FEFDCF80818EBD0DB407FEFDCF818193
:104C70008EBD2E5F3F4F329682E02030380779F7A5
:104C80000DB407FEFDCF8FEF8EBD0DB407FEFDCF37
:104C90008FEF8EBD0DB407FEFDCF8FEF8EBD0DB42F
:104CA00007FEFDCF8EB51A968C931A978F718530BB
:104CB00011F481E0089581E115968C931597CD014B
:104CC0000E94242680E00895FF920F931F93CF93B4
:104CD000DF93EC010E94F4108B01FF24FA9409C0C9
:104CE0000E94F410601B710B6D52714010F08FE048
:104CF0000DC0FEBC0DB407FEFDCF8EB58A878F3F79
:104D000079F38E3F11F481E006C08DE08D83CE01F2
:104D10000E94242680E0DF91CF911F910F91FF9098
:104D20000895CF93DF93EC018E818823D1F08FEF2C
:104D30008EBD2F8138854FEF04C00DB407FEFDCF27
:104D40004EBD2F5F3F4FC901019781509240A8F39C
:104D500038872F830DB407FEFDCFCE010E94242695
:104D60001E82DF91CF910895DF92EF92FF920F9311
:104D70001F93CF93DF93EC01D62E79018A010E9415
:104D80009126CE010E941E26CE016CE271E00E94A7
:104D9000FC258D2D80648EBD0DB407FEFDCF28E16E
:104DA00030E0D801C701022E04C0B695A7959795AB
:104DB00087950A94D2F78EBD0DB407FEFDCF28501B
:104DC00030408FEF283F380761F7DD2011F485E987
:104DD00006C088E0D81611F487E801C08FEF8EBDB9
:104DE0000DB407FEFDCF90E02FEF2EBD0DB407FEF2
:104DF000FDCF8EB587FF02C09150B9F78A87DF914A
:104E0000CF911F910F91FF90EF90DF900895CF9277
:104E1000DF92EF92FF920F931F93CF93DF93EC01FA
:104E20007A018B016901411551056105710511F484
:104E300082E137C08B85833039F029E0EE0CFF1C0E
:104E4000001F111F2A95D1F7CE0168E1A801970133
:104E50000E94B426882311F084E023C0CE016EEFB7
:104E6000A6010E942A268823E9F0CE0168E572E0B7
:104E70000E94FC25882311F485E113C0CE016DE06A
:104E800020E030E040E050E00E94B426882341F466
:104E90008FEF8EBD0DB407FEFDCF8EB5882379F060
:104EA00084E18D83CE010E94242680E0DF91CF91A2
:104EB0001F910F91FF90EF90DF90CF900895CE015A
:104EC0000E94242681E0F2CF8F929F92AF92BF92F0
:104ED000CF92DF92EF92FF920F931F93CF93DF93C6
:104EE000EC015A016B0149010115110509F47BC060
:104EF000C801820F931F8150924008F06FC08E81CD
:104F0000882371F088819981AA81BB81481759074C
:104F10006A077B0729F48F8198858816990618F50A
:104F2000A882B982CA82DB828B85833039F069E03E
:104F3000AA0CBB1CCC1CDD1C6A95D1F7CE0161E12B
:104F4000A60195010E94B426882319F083E08D8381
:104F500045C0CE010E946426882309F43FC018860C
:104F60001F8281E08E838FEF8EBD8F8198852FEF1A
:104F700005C00DB407FEFDCF2EBD0196881599051D
:104F8000C0F398878F83D801119720E030E09FEF1E
:104F90000BC00DB407FEFDCF8EB5F701E20FF31F76
:104FA00080839EBD2F5F3F4F2A173B0790F30DB4C0
:104FB00007FEFDCF8EB5AE0DBF1D8C932F813885BA
:104FC000200F311F38872F838985882319F02050BF
:104FD000324048F0CE010E94912605C0CE010E94C9
:104FE000242680E001C081E0DF91CF911F910F91D5
:104FF000FF90EF90DF90CF90BF90AF909F908F90F9
:105000000895EF92FF920F931F93790120E030E013
:1050100000E012E00E9464271F910F91FF90EF9033
:105020000895BF92CF92DF92EF92FF920F931F935A
:10503000CF93DF93EC01B62E1B8619861E821D824C
:105040004C830E94F4106B018C8161E00E94BD11C1
:10505000CE010E94242682E360E00E94BD1183E31A
:1050600061E00E94BD1184E361E00E94BD1185E30F
:1050700061E00E94BD1185E361E00E94701283E54A
:105080008CBD8DB58E7F8DBD80E09FEF9EBD0DB434
:1050900007FEFDCF8F5F8A30C9F7CE010E941E2622
:1050A00009C00E94F4106C197D09615D774010F011
:1050B00081E05EC0CE0160E020E030E040E050E002
:1050C0000E94B426182F8A87813059F7CE0168E0F4
:1050D0002AEA31E040E050E00E94B42682FF02C09C
:1050E0001B8711C080E02FEF2EBD0DB407FEFDCF52
:1050F0009EB58F5F8430C1F79A879A3A11F082E0AB
:1051000037C082E08B878B85823021F0EE24FF242C
:1051100087010FC0E12CF12C012DF0E41F2F09C0F5
:105120000E94F4106C197D09615D774010F088E0F1
:105130001FC0CE0167E320E030E040E050E00E9475
:10514000B426CE0169E2A80197010E94B4268A879D
:10515000882331F78B85823031F5CE016AE320E078
:1051600030E040E050E00E94B426882339F086E029
:105170008D83CE010E94242680E01CC08FEF8EBD5F
:105180000DB407FEFDCF8EB5807C803C11F483E02A
:105190008B8780E09FEF9EBD0DB407FEFDCF2EB53F
:1051A0008F5F8330C1F7CE010E942426CE016B2D84
:1051B0000E94D725DF91CF911F910F91FF90EF9023
:1051C000DF90CF90BF900895CF93DF93EC01DB0188
:1051D00080E090E020E2FD01E80FF91F20830196B6
:1051E0008B309105C1F757E040E021C02E3219F015
:1051F00086EE97E007C05A3019F15AE048E017C030
:105200003217F1F0FC01019634913323C9F754179A
:10521000B8F02132A8F02F3798F4822F81568A31C6
:1052200008F42052FD01E40FF11D20834F5F299106
:105230002223E1F690E08C91803219F091E001C0D8
:1052400090E0892FDF91CF9108956F927F928F9296
:105250009F92AF92BF92CF92DF92EF92FF920F9305
:105260001F93CF93DF93EC017A018B012D812223D1
:1052700009F480C08B899C89AD89BE898417950704
:10528000A607B70708F476C085C0E114F10401054C
:10529000110549F41E821F82188619861A861B86FC
:1052A0001C861D8665C02A853B854C855D85EB8DFA
:1052B000FC8D858590E0099621503040404050405B
:1052C00039014A01082E04C0969487947794679414
:1052D0000A94D2F72F5F3F4F4F4F5F4F0894E1087A
:1052E000F108010911095701680104C0D694C79457
:1052F000B794A7948A95D2F70894E11CF11C011D7C
:10530000111DA614B704C804D90428F021153105CD
:105310004105510549F48F89988DA98DBA8D8E83E9
:105320009F83A887B98716C0A618B708C808D908E8
:1053300011C04E815F81688579858B8D9C8D94012C
:105340000E94FF320894A108B108C108D10888233F
:1053500031F410C086E0882E912C8C0E9D1EA11475
:10536000B104C104D10429F7EA86FB860C871D87A6
:1053700081E001C080E0DF91CF911F910F91FF90FC
:10538000EF90DF90CF90BF90AF909F908F907F90E5
:105390006F900895223009F078CFE6CFCF93DF9356
:1053A000EC01462F6E857F85888999890E94E330BC
:1053B000882319F420E030E00AC08A89282F30E0E1
:1053C00095E0220F331F9A95E1F72558384FC90110
:1053D000DF91CF9108950F931F93CF93DF938C01AB
:1053E000FC0185818823D9F1848187FF35C0C801FC
:1053F00061E00E94CE29EC01009789F1F8018581D6
:10540000823040F483899489A589B6898C8F9D8FD9
:10541000AE8FBF8FF8018789908D9B8F8A8F878988
:10542000908DA18DB28DCD01AA27BB279D8B8C8B32
:10543000E0917907F0917A07309751F0BE016A5EEA
:105440007F4FCE0148961995888D998D9B8B8A8BBD
:10545000F80184818F7784830E94843001C080E0CA
:10546000DF91CF911F910F910895CF93DF93EC01BE
:105470000E94EB29882311F01D8281E0DF91CF91FA
:1054800008956F927F928F929F92AF92BF92CF9228
:10549000DF92EF92FF920F931F93DF93CF9300D091
:1054A0000F92CDB7DEB77C015A016B01DC01159676
:1054B0008C911597813009F08FC014968C9181FFE3
:1054C0008BC09EC00097A105B10511F481E085C095
:1054D000F7016284738484849584C701B601A501B1
:1054E0000E942529882309F477C0D7015B968D9106
:1054F0009C915C97A114B104C104D10489F457961E
:105500004D915D916D917C915A970E9472338823E1
:1055100009F462C0F701178A108E118E128E3DC0F9
:10552000D70116964D915D916D917C9119979E01D1
:105530002F5F3F4F0E94FF32882309F44DC0D701EF
:105540005B96ED91FC915C9749815A816B817C81DE
:105550008789803129F088EF9FEFAFEFBFE004C06B
:1055600088EF9FEFA0E0B0E0481759076A077B0774
:10557000A0F4CF010E947233882371F1F7014681B4
:10558000578160857185838D948D0FEF1FEF2FEF0D
:105590003FE00E9463328823F9F0D7015396AD9221
:1055A000BD92CD92DC92569714968C911497806898
:1055B00014968C93C7010E94EB29882369F0B601E9
:1055C000A5016A147B048C049D0410F4B401A301AA
:1055D000C7010E94252901C080E00F900F900F9015
:1055E0000F90CF91DF911F910F91FF90EF90DF907F
:1055F000CF90BF90AF909F908F907F906F900895C5
:10560000F70183899489A589B68984179507A60728
:10561000B70708F057CFE0CF2F923F924F925F929B
:105620006F927F928F929F92AF92BF92CF92DF92B2
:10563000EF92FF920F931F93CF93DF93EC012A0118
:105640008D81882309F4C6C08C8180FFC3C0D8C077
:1056500025014E185F084B0176E0272E312C2C0EC9
:105660003D1E3201B1C02A853B854C855D856FEFBB
:10567000A62E61E0B62EA222B3228D8179018A0185
:1056800099E016950795F794E7949A95D1F7EB8DE5
:10569000FC8D823049F4428D538D648D758D4E0D95
:1056A0005F1D601F711F3FC0D480DA94DE20A114FB
:1056B000B104D9F4DD20C9F42115310541055105A6
:1056C00049F48F89988DA98DBA8D8E839F83A88781
:1056D000B9870BC04E815F8168857985CF019101C3
:1056E0000E94FF32882309F475C0EB8DFC8D4E813A
:1056F0005F816885798542505040604070400584E4
:1057000004C0440F551F661F771F0A94D2F7868581
:105710009785A089B189480F591F6A1F7B1F4D0DBE
:10572000511D611D711D80E092E08A199B09630182
:105730008615970508F46C018C8186FD06C080E013
:10574000C81682E0D80609F073C08091BB0390911F
:10575000BC03A091BD03B091BE03481759076A0767
:105760007B0709F465C080917B0990917C099501C4
:10577000860174010E946427882361F18C0C9D1CB2
:1057800012C095012558384FA9014C0D5D1DD4015B
:10579000F90102C081918D93E417F507D9F7E21B57
:1057A000F30B8E0E9F1E960140E050E08A859B858C
:1057B000AC85BD85820F931FA41FB51F8A879B8769
:1057C000AC87BD876C187D086114710409F04BCF5C
:1057D000A20102C04FEF5FEFCA01DF91CF911F918D
:1057E0000F91FF90EF90DF90CF90BF90AF909F9080
:1057F0008F907F906F905F904F903F902F90089583
:10580000AB88BC88CD88DE88EA84FB840C851D8546
:105810009A0140E050E0D601C5018E199F09A00B06
:10582000B10B82179307A407B50708F411CF13CF64
:10583000CB01BA0140E00E94E330882309F0A1CFF8
:10584000C9CFCF92DF92EF92FF920F931F93DF9316
:10585000CF930F92CDB7DEB76C01FC01858182300A
:1058600070F0E284F38404851585C601BE016F5F84
:105870007F4F41E050E00E940C2B019769F020E03F
:1058800030E0C9010F90CF91DF911F910F91FF90F0
:10589000EF90DF90CF900895F60182859385A485DF
:1058A000B5854F96A11DB11D82879387A487B587C3
:1058B000F5E016950795F794E794FA95D1F78E2DB4
:1058C0008F70282F30E0E5E0220F331FEA95E1F7D3
:1058D0002558384FD6CF0F931F93CF93DF93EC010A
:1058E0008B018D81882309F041C0FB0187898031BC
:1058F000B1F482E08D831F8A188E198E1A8E808DE6
:10590000918DA0E0B0E045E0880F991FAA1FBB1F52
:105910004A95D1F78B8B9C8BAD8BBE8B15C080329B
:1059200029F583E08D83FB01428D538D648D758D48
:105930004F8B588F698F7A8F9E012D5E3F4FC80124
:105940000E94CB33882391F01C8F0B8F81E08C83D6
:105950001E821F82188619861A861B861C861D8643
:105960001E861F86188A198A1A8A01C080E0DF9174
:10597000CF911F910F9108951F93CF93DF93EC0167
:10598000142FE62FF0E075E0EE0FFF1F7A95E1F798
:10599000E558F84F8385817121F0842F827409F0D6
:1059A00054C06A8B8091BB039091BC03A091BD034E
:1059B000B091BE038E879F87A88BB98B8489958908
:1059C000A0E0B0E0BC0155274427828D938DA0E074
:1059D000B0E0482B592B6A2B7B2B4F8B588F698F4C
:1059E0007A8F838590E088719070009751F4848D50
:1059F000958DA68DB78D8B8B9C8BAD8BBE8B81E0EF
:105A00000CC0409711F59E012D5E3F4F8B8D9C8DF4
:105A10000E94CB338823C9F084E08D83812F8F705F
:105A20008C831E821F82188619861A861B861C8606
:105A30001D8616FD02C081E009C0CE0140E050E0A5
:105A400060E070E00E94412A01C080E0DF91CF91C8
:105A50001F910895CF93DF93EC019C012A5F3F4F84
:105A60008B8D9C8D41E050E060E070E00E943A3404
:105A70008823A1F08F89988DA98DBA8D0097A105F3
:105A8000B10559F48E819F81A885B9858F8B988F38
:105A9000A98FBA8F8C8180688C8381E0DF91CF9150
:105AA00008952F923F924F925F927F928F929F9292
:105AB000AF92BF92CF92DF92EF92FF920F931F931C
:105AC000DF93CF9300D000D0CDB7DEB76C01162F97
:105AD000072F5E834D83DC0115968C9115978130DD
